{
  "_format": "hh-sol-artifact-1",
  "contractName": "SubportDomains721vl",
  "sourceName": "contracts/subportDomains721v1.sol",
  "abi": [
    {
      "inputs": [],
      "stateMutability": "nonpayable",
      "type": "constructor"
    },
    {
      "anonymous": false,
      "inputs": [
        {
          "indexed": false,
          "internalType": "address",
          "name": "previousAdmin",
          "type": "address"
        },
        {
          "indexed": false,
          "internalType": "address",
          "name": "newAdmin",
          "type": "address"
        }
      ],
      "name": "AdminChanged",
      "type": "event"
    },
    {
      "anonymous": false,
      "inputs": [
        {
          "indexed": true,
          "internalType": "address",
          "name": "owner",
          "type": "address"
        },
        {
          "indexed": true,
          "internalType": "address",
          "name": "approved",
          "type": "address"
        },
        {
          "indexed": true,
          "internalType": "uint256",
          "name": "tokenId",
          "type": "uint256"
        }
      ],
      "name": "Approval",
      "type": "event"
    },
    {
      "anonymous": false,
      "inputs": [
        {
          "indexed": true,
          "internalType": "address",
          "name": "owner",
          "type": "address"
        },
        {
          "indexed": true,
          "internalType": "address",
          "name": "operator",
          "type": "address"
        },
        {
          "indexed": false,
          "internalType": "bool",
          "name": "approved",
          "type": "bool"
        }
      ],
      "name": "ApprovalForAll",
      "type": "event"
    },
    {
      "anonymous": false,
      "inputs": [
        {
          "indexed": true,
          "internalType": "address",
          "name": "beacon",
          "type": "address"
        }
      ],
      "name": "BeaconUpgraded",
      "type": "event"
    },
    {
      "anonymous": false,
      "inputs": [
        {
          "indexed": false,
          "internalType": "uint8",
          "name": "version",
          "type": "uint8"
        }
      ],
      "name": "Initialized",
      "type": "event"
    },
    {
      "anonymous": false,
      "inputs": [
        {
          "indexed": true,
          "internalType": "address",
          "name": "previousOwner",
          "type": "address"
        },
        {
          "indexed": true,
          "internalType": "address",
          "name": "newOwner",
          "type": "address"
        }
      ],
      "name": "OwnershipTransferred",
      "type": "event"
    },
    {
      "anonymous": false,
      "inputs": [
        {
          "indexed": false,
          "internalType": "address",
          "name": "account",
          "type": "address"
        }
      ],
      "name": "Paused",
      "type": "event"
    },
    {
      "anonymous": false,
      "inputs": [
        {
          "indexed": true,
          "internalType": "address",
          "name": "from",
          "type": "address"
        },
        {
          "indexed": true,
          "internalType": "address",
          "name": "to",
          "type": "address"
        },
        {
          "indexed": true,
          "internalType": "uint256",
          "name": "tokenId",
          "type": "uint256"
        }
      ],
      "name": "Transfer",
      "type": "event"
    },
    {
      "anonymous": false,
      "inputs": [
        {
          "indexed": false,
          "internalType": "address",
          "name": "account",
          "type": "address"
        }
      ],
      "name": "Unpaused",
      "type": "event"
    },
    {
      "anonymous": false,
      "inputs": [
        {
          "indexed": true,
          "internalType": "address",
          "name": "implementation",
          "type": "address"
        }
      ],
      "name": "Upgraded",
      "type": "event"
    },
    {
      "inputs": [
        {
          "internalType": "address",
          "name": "to",
          "type": "address"
        },
        {
          "internalType": "uint256",
          "name": "tokenId",
          "type": "uint256"
        }
      ],
      "name": "approve",
      "outputs": [],
      "stateMutability": "nonpayable",
      "type": "function"
    },
    {
      "inputs": [
        {
          "internalType": "address",
          "name": "owner",
          "type": "address"
        }
      ],
      "name": "balanceOf",
      "outputs": [
        {
          "internalType": "uint256",
          "name": "",
          "type": "uint256"
        }
      ],
      "stateMutability": "view",
      "type": "function"
    },
    {
      "inputs": [
        {
          "internalType": "uint256",
          "name": "tokenId",
          "type": "uint256"
        }
      ],
      "name": "burn",
      "outputs": [],
      "stateMutability": "nonpayable",
      "type": "function"
    },
    {
      "inputs": [
        {
          "internalType": "string",
          "name": "",
          "type": "string"
        }
      ],
      "name": "domains",
      "outputs": [
        {
          "internalType": "address",
          "name": "",
          "type": "address"
        }
      ],
      "stateMutability": "view",
      "type": "function"
    },
    {
      "inputs": [
        {
          "internalType": "string",
          "name": "name",
          "type": "string"
        }
      ],
      "name": "getAddress",
      "outputs": [
        {
          "internalType": "address",
          "name": "",
          "type": "address"
        }
      ],
      "stateMutability": "view",
      "type": "function"
    },
    {
      "inputs": [],
      "name": "getAllNames",
      "outputs": [
        {
          "internalType": "string[]",
          "name": "",
          "type": "string[]"
        }
      ],
      "stateMutability": "view",
      "type": "function"
    },
    {
      "inputs": [
        {
          "internalType": "uint256",
          "name": "tokenId",
          "type": "uint256"
        }
      ],
      "name": "getApproved",
      "outputs": [
        {
          "internalType": "address",
          "name": "",
          "type": "address"
        }
      ],
      "stateMutability": "view",
      "type": "function"
    },
    {
      "inputs": [
        {
          "internalType": "string",
          "name": "name",
          "type": "string"
        }
      ],
      "name": "getRole",
      "outputs": [
        {
          "internalType": "string",
          "name": "",
          "type": "string"
        }
      ],
      "stateMutability": "view",
      "type": "function"
    },
    {
      "inputs": [
        {
          "internalType": "string",
          "name": "_tld",
          "type": "string"
        },
        {
          "internalType": "string",
          "name": "_role1",
          "type": "string"
        },
        {
          "internalType": "string",
          "name": "_role2",
          "type": "string"
        }
      ],
      "name": "initialize",
      "outputs": [],
      "stateMutability": "nonpayable",
      "type": "function"
    },
    {
      "inputs": [
        {
          "internalType": "address",
          "name": "owner",
          "type": "address"
        },
        {
          "internalType": "address",
          "name": "operator",
          "type": "address"
        }
      ],
      "name": "isApprovedForAll",
      "outputs": [
        {
          "internalType": "bool",
          "name": "",
          "type": "bool"
        }
      ],
      "stateMutability": "view",
      "type": "function"
    },
    {
      "inputs": [],
      "name": "isBeta",
      "outputs": [
        {
          "internalType": "bool",
          "name": "",
          "type": "bool"
        }
      ],
      "stateMutability": "view",
      "type": "function"
    },
    {
      "inputs": [],
      "name": "name",
      "outputs": [
        {
          "internalType": "string",
          "name": "",
          "type": "string"
        }
      ],
      "stateMutability": "view",
      "type": "function"
    },
    {
      "inputs": [
        {
          "internalType": "uint256",
          "name": "",
          "type": "uint256"
        }
      ],
      "name": "names",
      "outputs": [
        {
          "internalType": "string",
          "name": "",
          "type": "string"
        }
      ],
      "stateMutability": "view",
      "type": "function"
    },
    {
      "inputs": [],
      "name": "openToPublic",
      "outputs": [
        {
          "internalType": "bool",
          "name": "",
          "type": "bool"
        }
      ],
      "stateMutability": "view",
      "type": "function"
    },
    {
      "inputs": [],
      "name": "owner",
      "outputs": [
        {
          "internalType": "address",
          "name": "",
          "type": "address"
        }
      ],
      "stateMutability": "view",
      "type": "function"
    },
    {
      "inputs": [
        {
          "internalType": "uint256",
          "name": "tokenId",
          "type": "uint256"
        }
      ],
      "name": "ownerOf",
      "outputs": [
        {
          "internalType": "address",
          "name": "",
          "type": "address"
        }
      ],
      "stateMutability": "view",
      "type": "function"
    },
    {
      "inputs": [],
      "name": "pause",
      "outputs": [],
      "stateMutability": "nonpayable",
      "type": "function"
    },
    {
      "inputs": [],
      "name": "paused",
      "outputs": [
        {
          "internalType": "bool",
          "name": "",
          "type": "bool"
        }
      ],
      "stateMutability": "view",
      "type": "function"
    },
    {
      "inputs": [
        {
          "internalType": "string",
          "name": "name",
          "type": "string"
        }
      ],
      "name": "price",
      "outputs": [
        {
          "internalType": "uint256",
          "name": "",
          "type": "uint256"
        }
      ],
      "stateMutability": "view",
      "type": "function"
    },
    {
      "inputs": [],
      "name": "proxiableUUID",
      "outputs": [
        {
          "internalType": "bytes32",
          "name": "",
          "type": "bytes32"
        }
      ],
      "stateMutability": "view",
      "type": "function"
    },
    {
      "inputs": [
        {
          "internalType": "bytes",
          "name": "signature",
          "type": "bytes"
        },
        {
          "internalType": "string",
          "name": "name",
          "type": "string"
        },
        {
          "internalType": "string",
          "name": "role",
          "type": "string"
        }
      ],
      "name": "register",
      "outputs": [],
      "stateMutability": "payable",
      "type": "function"
    },
    {
      "inputs": [],
      "name": "renounceOwnership",
      "outputs": [],
      "stateMutability": "nonpayable",
      "type": "function"
    },
    {
      "inputs": [
        {
          "internalType": "string",
          "name": "name",
          "type": "string"
        },
        {
          "internalType": "string",
          "name": "role",
          "type": "string"
        }
      ],
      "name": "reserve",
      "outputs": [],
      "stateMutability": "payable",
      "type": "function"
    },
    {
      "inputs": [],
      "name": "role1",
      "outputs": [
        {
          "internalType": "string",
          "name": "",
          "type": "string"
        }
      ],
      "stateMutability": "view",
      "type": "function"
    },
    {
      "inputs": [],
      "name": "role2",
      "outputs": [
        {
          "internalType": "string",
          "name": "",
          "type": "string"
        }
      ],
      "stateMutability": "view",
      "type": "function"
    },
    {
      "inputs": [
        {
          "internalType": "string",
          "name": "",
          "type": "string"
        }
      ],
      "name": "roles",
      "outputs": [
        {
          "internalType": "string",
          "name": "",
          "type": "string"
        }
      ],
      "stateMutability": "view",
      "type": "function"
    },
    {
      "inputs": [
        {
          "internalType": "address",
          "name": "from",
          "type": "address"
        },
        {
          "internalType": "address",
          "name": "to",
          "type": "address"
        },
        {
          "internalType": "uint256",
          "name": "tokenId",
          "type": "uint256"
        }
      ],
      "name": "safeTransferFrom",
      "outputs": [],
      "stateMutability": "nonpayable",
      "type": "function"
    },
    {
      "inputs": [
        {
          "internalType": "address",
          "name": "from",
          "type": "address"
        },
        {
          "internalType": "address",
          "name": "to",
          "type": "address"
        },
        {
          "internalType": "uint256",
          "name": "tokenId",
          "type": "uint256"
        },
        {
          "internalType": "bytes",
          "name": "data",
          "type": "bytes"
        }
      ],
      "name": "safeTransferFrom",
      "outputs": [],
      "stateMutability": "nonpayable",
      "type": "function"
    },
    {
      "inputs": [
        {
          "internalType": "address",
          "name": "operator",
          "type": "address"
        },
        {
          "internalType": "bool",
          "name": "approved",
          "type": "bool"
        }
      ],
      "name": "setApprovalForAll",
      "outputs": [],
      "stateMutability": "nonpayable",
      "type": "function"
    },
    {
      "inputs": [
        {
          "internalType": "string",
          "name": "contractURI",
          "type": "string"
        }
      ],
      "name": "setContractURI",
      "outputs": [],
      "stateMutability": "nonpayable",
      "type": "function"
    },
    {
      "inputs": [
        {
          "internalType": "address",
          "name": "newSignerAddress",
          "type": "address"
        }
      ],
      "name": "setSignerAddress",
      "outputs": [],
      "stateMutability": "nonpayable",
      "type": "function"
    },
    {
      "inputs": [
        {
          "internalType": "bytes4",
          "name": "interfaceId",
          "type": "bytes4"
        }
      ],
      "name": "supportsInterface",
      "outputs": [
        {
          "internalType": "bool",
          "name": "",
          "type": "bool"
        }
      ],
      "stateMutability": "view",
      "type": "function"
    },
    {
      "inputs": [],
      "name": "symbol",
      "outputs": [
        {
          "internalType": "string",
          "name": "",
          "type": "string"
        }
      ],
      "stateMutability": "view",
      "type": "function"
    },
    {
      "inputs": [],
      "name": "tld",
      "outputs": [
        {
          "internalType": "string",
          "name": "",
          "type": "string"
        }
      ],
      "stateMutability": "view",
      "type": "function"
    },
    {
      "inputs": [],
      "name": "toggleBeta",
      "outputs": [],
      "stateMutability": "nonpayable",
      "type": "function"
    },
    {
      "inputs": [],
      "name": "toggleSale",
      "outputs": [],
      "stateMutability": "nonpayable",
      "type": "function"
    },
    {
      "inputs": [
        {
          "internalType": "uint256",
          "name": "tokenId",
          "type": "uint256"
        }
      ],
      "name": "tokenURI",
      "outputs": [
        {
          "internalType": "string",
          "name": "",
          "type": "string"
        }
      ],
      "stateMutability": "view",
      "type": "function"
    },
    {
      "inputs": [
        {
          "internalType": "address",
          "name": "from",
          "type": "address"
        },
        {
          "internalType": "address",
          "name": "to",
          "type": "address"
        },
        {
          "internalType": "uint256",
          "name": "tokenId",
          "type": "uint256"
        }
      ],
      "name": "transferFrom",
      "outputs": [],
      "stateMutability": "nonpayable",
      "type": "function"
    },
    {
      "inputs": [
        {
          "internalType": "address",
          "name": "newOwner",
          "type": "address"
        }
      ],
      "name": "transferOwnership",
      "outputs": [],
      "stateMutability": "nonpayable",
      "type": "function"
    },
    {
      "inputs": [],
      "name": "unpause",
      "outputs": [],
      "stateMutability": "nonpayable",
      "type": "function"
    },
    {
      "inputs": [
        {
          "internalType": "address",
          "name": "newImplementation",
          "type": "address"
        }
      ],
      "name": "upgradeTo",
      "outputs": [],
      "stateMutability": "nonpayable",
      "type": "function"
    },
    {
      "inputs": [
        {
          "internalType": "address",
          "name": "newImplementation",
          "type": "address"
        },
        {
          "internalType": "bytes",
          "name": "data",
          "type": "bytes"
        }
      ],
      "name": "upgradeToAndCall",
      "outputs": [],
      "stateMutability": "payable",
      "type": "function"
    },
    {
      "inputs": [
        {
          "internalType": "string",
          "name": "name",
          "type": "string"
        }
      ],
      "name": "valid",
      "outputs": [
        {
          "internalType": "bool",
          "name": "",
          "type": "bool"
        }
      ],
      "stateMutability": "pure",
      "type": "function"
    },
    {
      "inputs": [],
      "name": "withdraw",
      "outputs": [],
      "stateMutability": "nonpayable",
      "type": "function"
    }
  ],
  "bytecode": "0x60a0604052306080523480156200001557600080fd5b506200002062000026565b62000116565b600054610100900460ff16156200005a5760405162461bcd60e51b81526004016200005190620000b4565b60405180910390fd5b60005460ff9081161015620000b2576000805460ff191660ff9081179091556040517f7f26b83ff96e1f2b6a682f133852f6798a09c465da95921460cefb384740249891620000a99162000106565b60405180910390a15b565b602080825281016200010081602781527f496e697469616c697a61626c653a20636f6e747261637420697320696e697469602082015266616c697a696e6760c81b604082015260600190565b92915050565b60ff821681526020810162000100565b6080516153286200014e60003960008181610bde01528181610c1e01528181611278015281816112b8015261136701526153286000f3fe6080604052600436106102e75760003560e01c80636352211e11610184578063a22cb465116100d6578063c87b56dd1161008a578063f2fde38b11610064578063f2fde38b146107e5578063fb825e5f14610805578063fe2c61981461082757600080fd5b8063c87b56dd14610767578063e985e9c514610787578063ed0908df146107d057600080fd5b8063b88d4fde116100bb578063b88d4fde14610707578063bb56873f14610727578063bf40fac11461074757600080fd5b8063a22cb465146106c7578063a6487c53146106e757600080fd5b80637d8966e411610138578063938e3d7b11610112578063938e3d7b1461067257806395d89b41146106925780639791c097146106a757600080fd5b80637d8966e41461062a5780638456cb591461063f5780638da5cb5b1461065457600080fd5b80636e9067fb116101695780636e9067fb146105d557806370a08231146105f5578063715018a61461061557600080fd5b80636352211e146105935780636ca1d96a146105b357600080fd5b80633ccfd60b1161023d5780634d431f19116101f157806352d1902d116101cb57806352d1902d1461054657806358229591146105685780635c975abb1461057b57600080fd5b80634d431f191461050b5780634f1ef2861461051e578063514f2e041461053157600080fd5b806342842e0e1161022257806342842e0e146104ab57806342966c68146104cb5780634622ab03146104eb57600080fd5b80633ccfd60b146104815780633f4ba83a1461049657600080fd5b806316ad2ac31161029f5780632644923511610279578063264492351461040a5780632d5514321461044c5780633659cfe61461046157600080fd5b806316ad2ac3146103b35780631831ccf2146103c857806323b872dd146103ea57600080fd5b806306fdde03116102d057806306fdde0314610344578063081812fc14610366578063095ea7b31461039357600080fd5b806301ffc9a7146102ec578063046dc16614610322575b600080fd5b3480156102f857600080fd5b5061030c61030736600461342a565b610847565b6040516103199190613455565b60405180910390f35b34801561032e57600080fd5b5061034261033d366004613488565b61092c565b005b34801561035057600080fd5b50610359610957565b6040516103199190613507565b34801561037257600080fd5b50610386610381366004613529565b6109e9565b6040516103199190613553565b34801561039f57600080fd5b506103426103ae366004613561565b610a10565b3480156103bf57600080fd5b50610342610a9e565b3480156103d457600080fd5b506101c75461030c90600160a01b900460ff1681565b3480156103f657600080fd5b5061034261040536600461359e565b610b13565b34801561041657600080fd5b506103866104253660046136e1565b80516020818301810180516101cc825292820191909301209152546001600160a01b031681565b34801561045857600080fd5b50610359610b45565b34801561046d57600080fd5b5061034261047c366004613488565b610bd4565b34801561048d57600080fd5b50610342610cc5565b3480156104a257600080fd5b50610342610d3b565b3480156104b757600080fd5b506103426104c636600461359e565b610d4d565b3480156104d757600080fd5b506103426104e6366004613529565b610d68565b3480156104f757600080fd5b50610359610506366004613529565b610d96565b610342610519366004613767565b610db0565b61034261052c366004613811565b61126e565b34801561053d57600080fd5b5061035961134c565b34801561055257600080fd5b5061055b61135a565b6040516103199190613865565b610342610576366004613873565b6113c9565b34801561058757600080fd5b5060c95460ff1661030c565b34801561059f57600080fd5b506103866105ae366004613529565b6117f1565b3480156105bf57600080fd5b506101c75461030c90600160a81b900460ff1681565b3480156105e157600080fd5b506103596105f03660046138ec565b611826565b34801561060157600080fd5b5061055b610610366004613488565b6118da565b34801561062157600080fd5b5061034261191e565b34801561063657600080fd5b50610342611930565b34801561064b57600080fd5b5061034261198e565b34801561066057600080fd5b5060fb546001600160a01b0316610386565b34801561067e57600080fd5b5061034261068d3660046136e1565b61199e565b34801561069e57600080fd5b506103596119ba565b3480156106b357600080fd5b5061030c6106c23660046138ec565b6119c9565b3480156106d357600080fd5b506103426106e2366004613947565b611a22565b3480156106f357600080fd5b5061034261070236600461397a565b611a2d565b34801561071357600080fd5b50610342610722366004613a10565b611cb1565b34801561073357600080fd5b506103596107423660046136e1565b611ce3565b34801561075357600080fd5b506103866107623660046138ec565b611d08565b34801561077357600080fd5b50610359610782366004613529565b611d3e565b34801561079357600080fd5b5061030c6107a2366004613a8f565b6001600160a01b039182166000908152606a6020908152604080832093909416825291909152205460ff1690565b3480156107dc57600080fd5b50610359611d49565b3480156107f157600080fd5b50610342610800366004613488565b611d57565b34801561081157600080fd5b5061081a611d8e565b6040516103199190613b38565b34801561083357600080fd5b5061055b6108423660046138ec565b611e5d565b60007fffffffff0000000000000000000000000000000000000000000000000000000082167f80ac58cd0000000000000000000000000000000000000000000000000000000014806108da57507fffffffff0000000000000000000000000000000000000000000000000000000082167f5b5e139f00000000000000000000000000000000000000000000000000000000145b8061092657507f01ffc9a7000000000000000000000000000000000000000000000000000000007fffffffff000000000000000000000000000000000000000000000000000000008316145b92915050565b610934611ecc565b6101c780546001600160a01b0319166001600160a01b0392909216919091179055565b60606065805461096690613b5f565b80601f016020809104026020016040519081016040528092919081815260200182805461099290613b5f565b80156109df5780601f106109b4576101008083540402835291602001916109df565b820191906000526020600020905b8154815290600101906020018083116109c257829003601f168201915b5050505050905090565b60006109f482611ef6565b506000908152606960205260409020546001600160a01b031690565b6000610a1b826117f1565b9050806001600160a01b0316836001600160a01b031603610a575760405162461bcd60e51b8152600401610a4e90613bdf565b60405180910390fd5b336001600160a01b0382161480610a735750610a7381336107a2565b610a8f5760405162461bcd60e51b8152600401610a4e90613c47565b610a998383611f2a565b505050565b610aa6611ecc565b6101c754600160a01b900460ff16610abd57600080fd5b6101c754600160a81b900460ff16610ad6576001610ad9565b60005b6101c78054911515600160a81b027fffffffffffffffffffff00ffffffffffffffffffffffffffffffffffffffffff909216919091179055565b610b1e335b82611f98565b610b3a5760405162461bcd60e51b8152600401610a4e90613caf565b610a99838383612017565b6101c48054610b5390613b5f565b80601f0160208091040260200160405190810160405280929190818152602001828054610b7f90613b5f565b8015610bcc5780601f10610ba157610100808354040283529160200191610bcc565b820191906000526020600020905b815481529060010190602001808311610baf57829003601f168201915b505050505081565b6001600160a01b037f0000000000000000000000000000000000000000000000000000000000000000163003610c1c5760405162461bcd60e51b8152600401610a4e90613d17565b7f00000000000000000000000000000000000000000000000000000000000000006001600160a01b0316610c777f360894a13ba1a3210667c828492db98dca3e2076cc3735a920a3ca505d382bbc546001600160a01b031690565b6001600160a01b031614610c9d5760405162461bcd60e51b8152600401610a4e90613d7f565b610ca68161214c565b60408051600080825260208201909252610cc291839190612154565b50565b610ccd611ecc565b6040514790600090339083908381818185875af1925050503d8060008114610d11576040519150601f19603f3d011682016040523d82523d6000602084013e610d16565b606091505b5050905080610d375760405162461bcd60e51b8152600401610a4e90613dc1565b5050565b610d43611ecc565b610d4b612248565b565b610a9983838360405180602001604052806000815250611cb1565b610d7133610b18565b610d8d5760405162461bcd60e51b8152600401610a4e90613caf565b610cc281612294565b6101ce6020526000908152604090208054610b5390613b5f565b83838383610dbe84846119c9565b8484604051602001610dd1929190613de1565b60405160208183030381529060405290610dfe5760405162461bcd60e51b8152600401610a4e9190613507565b5060006001600160a01b03166101cc8585604051610e1d929190613e12565b908152604051908190036020019020546001600160a01b031614610e535760405162461bcd60e51b8152600401610a4e90613e4f565b604080518082018252600781527f63726561746f7200000000000000000000000000000000000000000000000000602090910152517f0d1f301a4d55e328cfe2f78743e489a98cedaf66d744b3ab1bb877ff82930b0b90610eb79084908490613e12565b60405180910390201480610f1c5750604080518082018252600581526430b236b4b760d91b602090910152517ff23ec0bb4210edd5cba85afd05127efcd2fc6a781bfed49188da1081670b22d890610f129084908490613e12565b6040518091039020145b80610f905750604080518082018252600981527f636f6c6c6563746f720000000000000000000000000000000000000000000000602090910152517f57cfa32382416828aee86644cafefdbb1cde02d7764467b9d6062b5a1fd2b5a490610f869084908490613e12565b6040518091039020145b610fac5760405162461bcd60e51b8152600401610a4e90613e91565b604080518082018252600581526430b236b4b760d91b602090910152517ff23ec0bb4210edd5cba85afd05127efcd2fc6a781bfed49188da1081670b22d890610ff89084908490613e12565b604051809103902014158061101857506101c6546001600160a01b031633145b6110345760405162461bcd60e51b8152600401610a4e90613ef9565b6101c754600160a01b900460ff1661105e5760405162461bcd60e51b8152600401610a4e90613f3b565b6110678961229d565b6110835760405162461bcd60e51b8152600401610a4e90613f7d565b600161108e336118da565b106110ab5760405162461bcd60e51b8152600401610a4e90613fe5565b60006110b78989611e5d565b9050803410156110d95760405162461bcd60e51b8152600401610a4e90614027565b600089896101c46040516020016110f2939291906140a5565b604051602081830303815290604052905060006101ca826101cb60405160200161111e939291906140ec565b60408051601f198184030181526020601f8e018190048102840181019092528c835292506000916111b0918e908e9081908401838280828437600081840152601f19601f820116905080830192505050505050508b8b8080601f0160208091040260200160405190810160405280939291908181526020018383808284376000920191909152508792506122f5915050565b6040516020016111c09190614102565b604051602081830303815290604052905060006111dd6101c35490565b90506111e93382612342565b6111f3818361235c565b336101cc8e8e604051611207929190613e12565b908152604080516020928190038301902080546001600160a01b0319166001600160a01b03949094169390931790925560008381526101ce9091522061124e908e8e6132ad565b5061125e6101c380546001019055565b5050505050505050505050505050565b6001600160a01b037f00000000000000000000000000000000000000000000000000000000000000001630036112b65760405162461bcd60e51b8152600401610a4e90613d17565b7f00000000000000000000000000000000000000000000000000000000000000006001600160a01b03166113117f360894a13ba1a3210667c828492db98dca3e2076cc3735a920a3ca505d382bbc546001600160a01b031690565b6001600160a01b0316146113375760405162461bcd60e51b8152600401610a4e90613d7f565b6113408261214c565b610d3782826001612154565b6101c88054610b5390613b5f565b6000306001600160a01b037f000000000000000000000000000000000000000000000000000000000000000016146113a45760405162461bcd60e51b8152600401610a4e9061418a565b507f360894a13ba1a3210667c828492db98dca3e2076cc3735a920a3ca505d382bbc90565b838383836113d784846119c9565b84846040516020016113ea929190613de1565b604051602081830303815290604052906114175760405162461bcd60e51b8152600401610a4e9190613507565b5060006001600160a01b03166101cc8585604051611436929190613e12565b908152604051908190036020019020546001600160a01b03161461146c5760405162461bcd60e51b8152600401610a4e90613e4f565b604080518082018252600781527f63726561746f7200000000000000000000000000000000000000000000000000602090910152517f0d1f301a4d55e328cfe2f78743e489a98cedaf66d744b3ab1bb877ff82930b0b906114d09084908490613e12565b604051809103902014806115355750604080518082018252600581526430b236b4b760d91b602090910152517ff23ec0bb4210edd5cba85afd05127efcd2fc6a781bfed49188da1081670b22d89061152b9084908490613e12565b6040518091039020145b806115a95750604080518082018252600981527f636f6c6c6563746f720000000000000000000000000000000000000000000000602090910152517f57cfa32382416828aee86644cafefdbb1cde02d7764467b9d6062b5a1fd2b5a49061159f9084908490613e12565b6040518091039020145b6115c55760405162461bcd60e51b8152600401610a4e90613e91565b604080518082018252600581526430b236b4b760d91b602090910152517ff23ec0bb4210edd5cba85afd05127efcd2fc6a781bfed49188da1081670b22d8906116119084908490613e12565b604051809103902014158061163157506101c6546001600160a01b031633145b61164d5760405162461bcd60e51b8152600401610a4e90613ef9565b611655611ecc565b600088886101c460405160200161166e939291906140a5565b604051602081830303815290604052905060006101ca826101cb60405160200161169a939291906140ec565b604051602081830303815290604052905060006116b76101c35490565b905060006117418c8c8080601f016020809104026020016040519081016040528093929190818152602001838380828437600081840152601f19601f820116905080830192505050505050508b8b8080601f0160208091040260200160405190810160405280939291908181526020018383808284376000920191909152508892506122f5915050565b6040516020016117519190614102565b604051602081830303815290604052905061176c3383612342565b611776828261235c565b60008281526101ce60205260409020611790908d8d6132ad565b50336101cc8d8d6040516117a5929190613e12565b90815260405190819003602001902080546001600160a01b03929092166001600160a01b03199092169190911790556117e36101c380546001019055565b505050505050505050505050565b6000818152606760205260408120546001600160a01b0316806109265760405162461bcd60e51b8152600401610a4e906141cc565b60606101cd838360405161183b929190613e12565b9081526020016040518091039020805461185490613b5f565b80601f016020809104026020016040519081016040528092919081815260200182805461188090613b5f565b80156118cd5780601f106118a2576101008083540402835291602001916118cd565b820191906000526020600020905b8154815290600101906020018083116118b057829003601f168201915b5050505050905092915050565b60006001600160a01b0382166119025760405162461bcd60e51b8152600401610a4e90614234565b506001600160a01b031660009081526068602052604090205490565b611926611ecc565b610d4b60006123af565b611938611ecc565b6101c754600160a01b900460ff16611951576001611954565b60005b6101c78054911515600160a01b027fffffffffffffffffffffff00ffffffffffffffffffffffffffffffffffffffff909216919091179055565b611996611ecc565b610d4b612401565b6119a6611ecc565b8051610d37906101c5906020840190613331565b60606066805461096690613b5f565b60008083838080601f016020809104026020016040519081016040528093929190818152602001838380828437600092019190915250508251929350505060038110801590611a19575060128111155b95945050505050565b610d3733838361243e565b600054610100900460ff1615808015611a4d5750600054600160ff909116105b80611a675750303b158015611a67575060005460ff166001145b611a835760405162461bcd60e51b8152600401610a4e9061429c565b6000805460ff191660011790558015611aa6576000805461ff0019166101001790555b611b1a6040518060400160405280600781526020017f737562706f7274000000000000000000000000000000000000000000000000008152506040518060400160405280600581526020017f53425052540000000000000000000000000000000000000000000000000000008152506124e0565b611b22612511565b611b2a612538565b611b32612567565b611b3a612511565b611b42612511565b8351611b56906101c4906020870190613331565b506101c780547fffffffffffffffffff000000ffffffffffffffffffffffffffffffffffffffff16760101010000000000000000000000000000000000000000179055604080516104a08101909152610476808252614e1660208301398051611bc8916101ca91602090910190613331565b5060408051808201909152600d8082527f3c2f746578743e3c2f7376673e000000000000000000000000000000000000006020909201918252611c0e916101cb91613331565b506101c780546001600160a01b031916737b41de805578cb93f4d4758cea533e526eefef491790558251611c4a906101c8906020860190613331565b508151611c5f906101c9906020850190613331565b508015611cab576000805461ff00191690556040517f7f26b83ff96e1f2b6a682f133852f6798a09c465da95921460cefb384740249890611ca2906001906142c0565b60405180910390a15b50505050565b611cbb3383611f98565b611cd75760405162461bcd60e51b8152600401610a4e90613caf565b611cab84848484612596565b80516020818301810180516101cd8252928201919093012091528054610b5390613b5f565b60006101cc8383604051611d1d929190613e12565b908152604051908190036020019020546001600160a01b0316905092915050565b6060610926826125c9565b6101c98054610b5390613b5f565b611d5f611ecc565b6001600160a01b038116611d855760405162461bcd60e51b8152600401610a4e90614326565b610cc2816123af565b60606000611d9c6101c35490565b67ffffffffffffffff811115611db457611db46135ee565b604051908082528060200260200182016040528015611de757816020015b6060815260200190600190039081611dd25790505b50905060005b6101c354811015611e575760008181526101ce60209081526040918290209151611e18929101614336565b604051602081830303815290604052828281518110611e3957611e39614340565b60200260200101819052508080611e4f9061436c565b915050611ded565b50919050565b60008180611e6a57600080fd5b6101c754600160a81b900460ff1615611e87576000915050610926565b60058111611ea15768015af1d78b58c40000915050610926565b80600403611ebb576801158e460913d00000915050610926565b67d02ab486cedc0000915050610926565b60fb546001600160a01b03163314610d4b5760405162461bcd60e51b8152600401610a4e906143b6565b6000818152606760205260409020546001600160a01b0316610cc25760405162461bcd60e51b8152600401610a4e906141cc565b600081815260696020526040902080546001600160a01b0319166001600160a01b0384169081179091558190611f5f826117f1565b6001600160a01b03167f8c5be1e5ebec7d5bd14f71427d1e84f3dd0314c0f7b2291e5b200ac8c7c3b92560405160405180910390a45050565b600080611fa4836117f1565b9050806001600160a01b0316846001600160a01b03161480611feb57506001600160a01b038082166000908152606a602090815260408083209388168352929052205460ff165b8061200f5750836001600160a01b0316612004846109e9565b6001600160a01b0316145b949350505050565b826001600160a01b031661202a826117f1565b6001600160a01b0316146120505760405162461bcd60e51b8152600401610a4e9061441e565b6001600160a01b0382166120765760405162461bcd60e51b8152600401610a4e90614486565b61208383838360016126d1565b826001600160a01b0316612096826117f1565b6001600160a01b0316146120bc5760405162461bcd60e51b8152600401610a4e9061441e565b600081815260696020908152604080832080546001600160a01b03199081169091556001600160a01b0387811680865260688552838620805460001901905590871680865283862080546001019055868652606790945282852080549092168417909155905184937fddf252ad1be2c89b69c2b068fc378daa952ba7f163c4a11628f55a4df523b3ef91a4505050565b610cc2611ecc565b7f4910fdfa16fed3260ed0e7147f7cc6da11a60208b5b9406d12a635614ffd91435460ff161561218757610a99836126de565b826001600160a01b03166352d1902d6040518163ffffffff1660e01b8152600401602060405180830381865afa9250505080156121e1575060408051601f3d908101601f191682019092526121de918101906144a1565b60015b6121fd5760405162461bcd60e51b8152600401610a4e9061451a565b7f360894a13ba1a3210667c828492db98dca3e2076cc3735a920a3ca505d382bbc811461223c5760405162461bcd60e51b8152600401610a4e90614582565b50610a99838383612746565b61225061276b565b60c9805460ff191690557f5db9ee0a495bf2e6ff9c91a7834c1ba4fdd244a5e8aa4e537bd38aeae4b073aa335b60405161228a9190613553565b60405180910390a1565b610cc28161278d565b600080336040516020016122b191906145ba565b6040516020818303038152906040528051906020012090506122dc836122d6836127cd565b906127fd565b6101c7546001600160a01b039081169116149392505050565b60606000612337856101c461230986612821565b87896101c46040516020016123239695949392919061461e565b604051602081830303815290604052612821565b9150505b9392505050565b610d378282604051806020016040528060008152506129e0565b6000828152606760205260409020546001600160a01b03166123905760405162461bcd60e51b8152600401610a4e906148b9565b60008281526097602090815260409091208251610a9992840190613331565b60fb80546001600160a01b038381166001600160a01b0319831681179093556040519116919082907f8be0079c531659141344cd1fd0a4f28419497f9722a3daafe3b4186f6b6457e090600090a35050565b612409612a13565b60c9805460ff191660011790557f62e78cea01bee320cd4e420270b5ea74000d11b0c9f74754ebdbfc544b05a25861227d3390565b816001600160a01b0316836001600160a01b03160361246f5760405162461bcd60e51b8152600401610a4e906148fb565b6001600160a01b038381166000818152606a602090815260408083209487168084529490915290819020805460ff1916851515179055517f17307eab39ab6107e8899845ad3d59bd9653f200f220920489ca2b5937696c31906124d3908590613455565b60405180910390a3505050565b600054610100900460ff166125075760405162461bcd60e51b8152600401610a4e90614963565b610d378282612a36565b600054610100900460ff16610d4b5760405162461bcd60e51b8152600401610a4e90614963565b600054610100900460ff1661255f5760405162461bcd60e51b8152600401610a4e90614963565b610d4b612a84565b600054610100900460ff1661258e5760405162461bcd60e51b8152600401610a4e90614963565b610d4b612ab7565b6125a1848484612017565b6125ad84848484612ae7565b611cab5760405162461bcd60e51b8152600401610a4e906149cb565b60606125d482611ef6565b600082815260976020526040812080546125ed90613b5f565b80601f016020809104026020016040519081016040528092919081815260200182805461261990613b5f565b80156126665780601f1061263b57610100808354040283529160200191612666565b820191906000526020600020905b81548152906001019060200180831161264957829003601f168201915b50505050509050600061268460408051602081019091526000815290565b90508051600003612696575092915050565b8151156126c85780826040516020016126b09291906149db565b60405160208183030381529060405292505050919050565b61200f84612c32565b6126d9612a13565b611cab565b6001600160a01b0381163b6127055760405162461bcd60e51b8152600401610a4e90614a49565b7f360894a13ba1a3210667c828492db98dca3e2076cc3735a920a3ca505d382bbc80546001600160a01b0319166001600160a01b0392909216919091179055565b61274f83612ca5565b60008251118061275c5750805b15610a9957611cab8383612ce5565b60c95460ff16610d4b5760405162461bcd60e51b8152600401610a4e90614a8b565b61279681612d91565b600081815260976020526040902080546127af90613b5f565b159050610cc2576000818152609760205260408120610cc2916133a5565b6000816040516020016127e09190614a9b565b604051602081830303815290604052805190602001209050919050565b600080600061280c8585612e34565b9150915061281981612e79565b509392505050565b80516060906000819003612845575050604080516020810190915260008152919050565b60006003612854836002614ad3565b61285e9190614afc565b612869906004614b10565b90506000612878826020614ad3565b67ffffffffffffffff811115612890576128906135ee565b6040519080825280601f01601f1916602001820160405280156128ba576020820181803683370190505b509050600060405180606001604052806040815260200161528c604091399050600181016020830160005b86811015612946576003818a01810151603f601282901c8116860151600c83901c8216870151600684901c831688015192909316870151600891821b60ff94851601821b92841692909201901b91160160e01b8352600490920191016128e5565b50600386066001811461296057600281146129aa576129d2565b7f3d3d0000000000000000000000000000000000000000000000000000000000007ffffffffffffffffffffffffffffffffffffffffffffffffffffffffffffffffe8301526129d2565b7f3d000000000000000000000000000000000000000000000000000000000000006000198301525b505050918152949350505050565b6129ea8383612f28565b6129f76000848484612ae7565b610a995760405162461bcd60e51b8152600401610a4e906149cb565b60c95460ff1615610d4b5760405162461bcd60e51b8152600401610a4e90614b61565b600054610100900460ff16612a5d5760405162461bcd60e51b8152600401610a4e90614963565b8151612a70906065906020850190613331565b508051610a99906066906020840190613331565b600054610100900460ff16612aab5760405162461bcd60e51b8152600401610a4e90614963565b60c9805460ff19169055565b600054610100900460ff16612ade5760405162461bcd60e51b8152600401610a4e90614963565b610d4b336123af565b60006001600160a01b0384163b15612c27576040517f150b7a020000000000000000000000000000000000000000000000000000000081526001600160a01b0385169063150b7a0290612b44903390899088908890600401614b71565b6020604051808303816000875af1925050508015612b7f575060408051601f3d908101601f19168201909252612b7c91810190614bc0565b60015b612bdc573d808015612bad576040519150601f19603f3d011682016040523d82523d6000602084013e612bb2565b606091505b508051600003612bd45760405162461bcd60e51b8152600401610a4e906149cb565b805181602001fd5b7fffffffff00000000000000000000000000000000000000000000000000000000167f150b7a020000000000000000000000000000000000000000000000000000000014905061200f565b506001949350505050565b6060612c3d82611ef6565b6000612c5460408051602081019091526000815290565b90506000815111612c74576040518060200160405280600081525061233b565b80612c7e84613031565b604051602001612c8f9291906149db565b6040516020818303038152906040529392505050565b612cae816126de565b6040516001600160a01b038216907fbc7cd75a20ee27fd9adebab32041f755214dbc6bffa90cc0225b39da2e5c2d3b90600090a250565b60606001600160a01b0383163b612d0e5760405162461bcd60e51b8152600401610a4e90614c39565b600080846001600160a01b031684604051612d299190614c49565b600060405180830381855af49150503d8060008114612d64576040519150601f19603f3d011682016040523d82523d6000602084013e612d69565b606091505b5091509150611a1982826040518060600160405280602781526020016152cc602791396130d1565b6000612d9c826117f1565b9050612dac8160008460016126d1565b612db5826117f1565b600083815260696020908152604080832080546001600160a01b03199081169091556001600160a01b0385168085526068845282852080546000190190558785526067909352818420805490911690555192935084927fddf252ad1be2c89b69c2b068fc378daa952ba7f163c4a11628f55a4df523b3ef908390a45050565b6000808251604103612e6a5760208301516040840151606085015160001a612e5e878285856130ea565b94509450505050612e72565b506000905060025b9250929050565b6000816004811115612e8d57612e8d614c53565b03612e955750565b6001816004811115612ea957612ea9614c53565b03612ec65760405162461bcd60e51b8152600401610a4e90614c9b565b6002816004811115612eda57612eda614c53565b03612ef75760405162461bcd60e51b8152600401610a4e90614cdd565b6003816004811115612f0b57612f0b614c53565b03610cc25760405162461bcd60e51b8152600401610a4e90614d45565b6001600160a01b038216612f4e5760405162461bcd60e51b8152600401610a4e90614d85565b6000818152606760205260409020546001600160a01b031615612f835760405162461bcd60e51b8152600401610a4e90614dc7565b612f916000838360016126d1565b6000818152606760205260409020546001600160a01b031615612fc65760405162461bcd60e51b8152600401610a4e90614dc7565b6001600160a01b038216600081815260686020908152604080832080546001019055848352606790915280822080546001600160a01b0319168417905551839291907fddf252ad1be2c89b69c2b068fc378daa952ba7f163c4a11628f55a4df523b3ef908290a45050565b6060600061303e836131a1565b600101905060008167ffffffffffffffff81111561305e5761305e6135ee565b6040519080825280601f01601f191660200182016040528015613088576020820181803683370190505b5090508181016020015b600019017f3031323334353637383961626364656600000000000000000000000000000000600a86061a8153600a850494508461309257509392505050565b606083156130e057508161233b565b61233b8383613283565b6000807f7fffffffffffffffffffffffffffffff5d576e7357a4501ddfe92f46681b20a08311156131215750600090506003613198565b6000600187878787604051600081526020016040526040516131469493929190614de0565b6020604051602081039080840390855afa158015613168573d6000803e3d6000fd5b5050604051601f1901519150506001600160a01b03811661319157600060019250925050613198565b9150600090505b94509492505050565b6000807a184f03e93ff9f4daa797ed6e38ed64bf6a1f01000000000000000083106131ea577a184f03e93ff9f4daa797ed6e38ed64bf6a1f010000000000000000830492506040015b6d04ee2d6d415b85acef81000000008310613216576d04ee2d6d415b85acef8100000000830492506020015b662386f26fc10000831061323457662386f26fc10000830492506010015b6305f5e100831061324c576305f5e100830492506008015b612710831061326057612710830492506004015b60648310613272576064830492506002015b600a83106109265760010192915050565b8151156132935781518083602001fd5b8060405162461bcd60e51b8152600401610a4e9190613507565b8280546132b990613b5f565b90600052602060002090601f0160209004810192826132db5760008555613321565b82601f106132f45782800160ff19823516178555613321565b82800160010185558215613321579182015b82811115613321578235825591602001919060010190613306565b5061332d9291506133db565b5090565b82805461333d90613b5f565b90600052602060002090601f01602090048101928261335f5760008555613321565b82601f1061337857805160ff1916838001178555613321565b82800160010185558215613321579182015b8281111561332157825182559160200191906001019061338a565b5080546133b190613b5f565b6000825580601f106133c1575050565b601f016020900490600052602060002090810190610cc291905b5b8082111561332d57600081556001016133dc565b7fffffffff0000000000000000000000000000000000000000000000000000000081165b8114610cc257600080fd5b8035610926816133f0565b60006020828403121561343f5761343f600080fd5b600061200f848461341f565b8015155b82525050565b60208101610926828461344b565b60006001600160a01b038216610926565b61341481613463565b803561092681613474565b60006020828403121561349d5761349d600080fd5b600061200f848461347d565b60005b838110156134c45781810151838201526020016134ac565b83811115611cab5750506000910152565b60006134df825190565b8084526020840193506134f68185602086016134a9565b601f01601f19169290920192915050565b6020808252810161233b81846134d5565b80613414565b803561092681613518565b60006020828403121561353e5761353e600080fd5b600061200f848461351e565b61344f81613463565b60208101610926828461354a565b6000806040838503121561357757613577600080fd5b6000613583858561347d565b92505060206135948582860161351e565b9150509250929050565b6000806000606084860312156135b6576135b6600080fd5b60006135c2868661347d565b93505060206135d38682870161347d565b92505060406135e48682870161351e565b9150509250925092565b634e487b7160e01b600052604160045260246000fd5b601f19601f830116810181811067ffffffffffffffff8211171561362a5761362a6135ee565b6040525050565b600061363c60405190565b90506136488282613604565b919050565b600067ffffffffffffffff821115613667576136676135ee565b601f19601f83011660200192915050565b82818337506000910152565b60006136976136928461364d565b613631565b9050828152602081018484840111156136b2576136b2600080fd5b612819848285613678565b600082601f8301126136d1576136d1600080fd5b813561200f848260208601613684565b6000602082840312156136f6576136f6600080fd5b813567ffffffffffffffff81111561371057613710600080fd5b61200f848285016136bd565b60008083601f84011261373157613731600080fd5b50813567ffffffffffffffff81111561374c5761374c600080fd5b602083019150836001820283011115612e7257612e72600080fd5b60008060008060006060868803121561378257613782600080fd5b853567ffffffffffffffff81111561379c5761379c600080fd5b6137a8888289016136bd565b955050602086013567ffffffffffffffff8111156137c8576137c8600080fd5b6137d48882890161371c565b9450945050604086013567ffffffffffffffff8111156137f6576137f6600080fd5b6138028882890161371c565b92509250509295509295909350565b6000806040838503121561382757613827600080fd5b6000613833858561347d565b925050602083013567ffffffffffffffff81111561385357613853600080fd5b613594858286016136bd565b8061344f565b60208101610926828461385f565b6000806000806040858703121561388c5761388c600080fd5b843567ffffffffffffffff8111156138a6576138a6600080fd5b6138b28782880161371c565b9450945050602085013567ffffffffffffffff8111156138d4576138d4600080fd5b6138e08782880161371c565b95989497509550505050565b6000806020838503121561390257613902600080fd5b823567ffffffffffffffff81111561391c5761391c600080fd5b6139288582860161371c565b92509250509250929050565b801515613414565b803561092681613934565b6000806040838503121561395d5761395d600080fd5b6000613969858561347d565b92505060206135948582860161393c565b60008060006060848603121561399257613992600080fd5b833567ffffffffffffffff8111156139ac576139ac600080fd5b6139b8868287016136bd565b935050602084013567ffffffffffffffff8111156139d8576139d8600080fd5b6139e4868287016136bd565b925050604084013567ffffffffffffffff811115613a0457613a04600080fd5b6135e4868287016136bd565b60008060008060808587031215613a2957613a29600080fd5b6000613a35878761347d565b9450506020613a468782880161347d565b9350506040613a578782880161351e565b925050606085013567ffffffffffffffff811115613a7757613a77600080fd5b613a83878288016136bd565b91505092959194509250565b60008060408385031215613aa557613aa5600080fd5b6000613ab1858561347d565b92505060206135948582860161347d565b600061233b83836134d5565b60200190565b6000613ade825190565b80845260208401935083602082028501613af88560200190565b60005b84811015613b2c5783830388528151613b148482613ac2565b93505060208201602098909801979150600101613afb565b50909695505050505050565b6020808252810161233b8184613ad4565b634e487b7160e01b600052602260045260246000fd5b600281046001821680613b7357607f821691505b602082108103611e5757611e57613b49565b60218152602081017f4552433732313a20617070726f76616c20746f2063757272656e74206f776e6581527f7200000000000000000000000000000000000000000000000000000000000000602082015290505b60400190565b6020808252810161092681613b85565b603d8152602081017f4552433732313a20617070726f76652063616c6c6572206973206e6f7420746f81527f6b656e206f776e6572206f7220617070726f76656420666f7220616c6c00000060208201529050613bd9565b6020808252810161092681613bef565b602d8152602081017f4552433732313a2063616c6c6572206973206e6f7420746f6b656e206f776e6581527f72206f7220617070726f7665640000000000000000000000000000000000000060208201529050613bd9565b6020808252810161092681613c57565b602c8152602081017f46756e6374696f6e206d7573742062652063616c6c6564207468726f7567682081527f64656c656761746563616c6c000000000000000000000000000000000000000060208201529050613bd9565b6020808252810161092681613cbf565b602c8152602081017f46756e6374696f6e206d7573742062652063616c6c6564207468726f7567682081527f6163746976652070726f7879000000000000000000000000000000000000000060208201529050613bd9565b6020808252810161092681613d27565b60188152602081017f4661696c656420746f207769746864726177204d61746963000000000000000081529050613ace565b6020808252810161092681613d8f565b613ddc828483613678565b500190565b7f496e76616c69644e616d653a20000000000000000000000000000000000000008152600d0161233b818385613dd1565b61233b818385613dd1565b60118152602081017f416c72656164795265676973746572656400000000000000000000000000000081529050613ace565b6020808252810161092681613e1d565b600c8152602081017f496e76616c696420726f6c65000000000000000000000000000000000000000081529050613ace565b6020808252810161092681613e5f565b60288152602081017f41646d696e20726f6c652063616e206f6e6c792062652061737369676e65642081527f6279206f776e657200000000000000000000000000000000000000000000000060208201529050613bd9565b6020808252810161092681613ea1565b600c8152602081017f556e617574686f72697a6564000000000000000000000000000000000000000081529050613ace565b6020808252810161092681613f09565b60148152602081017f41646472657373206e6f7420766572696669656400000000000000000000000081529050613ace565b6020808252810161092681613f4b565b602f8152602081017f417965656f6f3a20596f752063616e206f6e6c79206d696e74206f6e6520667281527f656520636f6c6c65637469626c6521000000000000000000000000000000000060208201529050613bd9565b6020808252810161092681613f8d565b60158152602081017f4e6f7420656e6f756768204d617469632070616964000000000000000000000081529050613ace565b6020808252810161092681613ff5565b6000815461404481613b5f565b60018216801561405b576001811461406c5761409c565b60ff1983168652818601935061409c565b60008581526020902060005b8381101561409457815488820152600190910190602001614078565b505081860193505b50505092915050565b6140b0818486613dd1565b601760f91b81529050600181015b905061200f8183614037565b60006140d4825190565b6140e28185602086016134a9565b9290920192915050565b6140f68185614037565b90506140be81846140ca565b7f646174613a6170706c69636174696f6e2f6a736f6e3b6261736536342c0000008152601d0161092681836140ca565b60388152602081017f555550535570677261646561626c653a206d757374206e6f742062652063616c81527f6c6564207468726f7567682064656c656761746563616c6c000000000000000060208201529050613bd9565b6020808252810161092681614132565b60188152602081017f4552433732313a20696e76616c696420746f6b656e204944000000000000000081529050613ace565b602080825281016109268161419a565b60298152602081017f4552433732313a2061646472657373207a65726f206973206e6f74206120766181527f6c6964206f776e6572000000000000000000000000000000000000000000000060208201529050613bd9565b60208082528101610926816141dc565b602e8152602081017f496e697469616c697a61626c653a20636f6e747261637420697320616c72656181527f647920696e697469616c697a656400000000000000000000000000000000000060208201529050613bd9565b6020808252810161092681614244565b600060ff8216610926565b61344f816142ac565b6020810161092682846142b7565b60268152602081017f4f776e61626c653a206e6577206f776e657220697320746865207a65726f206181527f646472657373000000000000000000000000000000000000000000000000000060208201529050613bd9565b60208082528101610926816142ce565b6109268183614037565b634e487b7160e01b600052603260045260246000fd5b634e487b7160e01b600052601160045260246000fd5b6000600019820361437f5761437f614356565b5060010190565b60208082527f4f776e61626c653a2063616c6c6572206973206e6f7420746865206f776e65729101908152613ace565b6020808252810161092681614386565b60258152602081017f4552433732313a207472616e736665722066726f6d20696e636f72726563742081527f6f776e657200000000000000000000000000000000000000000000000000000060208201529050613bd9565b60208082528101610926816143c6565b60248152602081017f4552433732313a207472616e7366657220746f20746865207a65726f2061646481527f726573730000000000000000000000000000000000000000000000000000000060208201529050613bd9565b602080825281016109268161442e565b805161092681613518565b6000602082840312156144b6576144b6600080fd5b600061200f8484614496565b602e8152602081017f45524331393637557067726164653a206e657720696d706c656d656e7461746981527f6f6e206973206e6f74205555505300000000000000000000000000000000000060208201529050613bd9565b60208082528101610926816144c2565b60298152602081017f45524331393637557067726164653a20756e737570706f727465642070726f7881527f6961626c6555554944000000000000000000000000000000000000000000000060208201529050613bd9565b602080825281016109268161452a565b60006109268260601b90565b600061092682614592565b61344f6145b582613463565b61459e565b6145c481836145a9565b601401919050565b7f227d00000000000000000000000000000000000000000000000000000000000081525b60020190565b7f5d7d00000000000000000000000000000000000000000000000000000000000081526145f0565b7f7b226e616d65223a2022000000000000000000000000000000000000000000008152600a0161464e81886140ca565b601760f91b815260010190506146648187614037565b7f222c226465736372697074696f6e223a2022796f7572206f6666696369616c2081527f737562706f72742068616e646c652e206469676974616c20636f6c6c6563746960208201527f626c657320666f722066616e732c2066726f6d2061727469737473207468657960408201527f206c697374656e20746f2e20756e6c6f636b206d757369632e222c22696d616760608201527f65223a2022646174613a696d6167652f7376672b786d6c3b6261736536342c006080820152609f01905061472e81866140ca565b7f222c2261747472696275746573223a205b00000000000000000000000000000081527f7b2274726169745f74797065223a202254797065222c202276616c7565223a2060118201527f2200000000000000000000000000000000000000000000000000000000000000603182015260320190506147ac81856140ca565b7f227d2c000000000000000000000000000000000000000000000000000000000081527f7b2274726169745f74797065223a202268616e646c65222c202276616c75652260038201527f3a202200000000000000000000000000000000000000000000000000000000006023820152602601905061482a81846140ca565b601760f91b815260010190506148408183614037565b905061484b816145cc565b9050614856816145f6565b979650505050505050565b602e8152602081017f45524337323155524953746f726167653a2055524920736574206f66206e6f6e81527f6578697374656e7420746f6b656e00000000000000000000000000000000000060208201529050613bd9565b6020808252810161092681614861565b60198152602081017f4552433732313a20617070726f766520746f2063616c6c65720000000000000081529050613ace565b60208082528101610926816148c9565b602b8152602081017f496e697469616c697a61626c653a20636f6e7472616374206973206e6f74206981527f6e697469616c697a696e6700000000000000000000000000000000000000000060208201529050613bd9565b602080825281016109268161490b565b60328152602081017f4552433732313a207472616e7366657220746f206e6f6e20455243373231526581527f63656976657220696d706c656d656e746572000000000000000000000000000060208201529050613bd9565b6020808252810161092681614973565b6149e581846140ca565b905061233b81836140ca565b602d8152602081017f455243313936373a206e657720696d706c656d656e746174696f6e206973206e81527f6f74206120636f6e74726163740000000000000000000000000000000000000060208201529050613bd9565b60208082528101610926816149f1565b60148152602081017f5061757361626c653a206e6f742070617573656400000000000000000000000081529050613ace565b6020808252810161092681614a59565b7f19457468657265756d205369676e6564204d6573736167653a0a3332000000008152601c01614acb818361385f565b602001919050565b60008219821115613ddc57613ddc614356565b634e487b7160e01b600052601260045260246000fd5b600082614b0b57614b0b614ae6565b500490565b6000816000190483118215151615614b2a57614b2a614356565b500290565b60108152602081017f5061757361626c653a207061757365640000000000000000000000000000000081529050613ace565b6020808252810161092681614b2f565b60808101614b7f828761354a565b614b8c602083018661354a565b614b99604083018561385f565b8181036060830152614bab81846134d5565b9695505050505050565b8051610926816133f0565b600060208284031215614bd557614bd5600080fd5b600061200f8484614bb5565b60268152602081017f416464726573733a2064656c65676174652063616c6c20746f206e6f6e2d636f81527f6e7472616374000000000000000000000000000000000000000000000000000060208201529050613bd9565b6020808252810161092681614be1565b61092681836140ca565b634e487b7160e01b600052602160045260246000fd5b60188152602081017f45434453413a20696e76616c6964207369676e6174757265000000000000000081529050613ace565b6020808252810161092681614c69565b601f8152602081017f45434453413a20696e76616c6964207369676e6174757265206c656e6774680081529050613ace565b6020808252810161092681614cab565b60228152602081017f45434453413a20696e76616c6964207369676e6174757265202773272076616c81527f756500000000000000000000000000000000000000000000000000000000000060208201529050613bd9565b6020808252810161092681614ced565b60208082527f4552433732313a206d696e7420746f20746865207a65726f20616464726573739101908152613ace565b6020808252810161092681614d55565b601c8152602081017f4552433732313a20746f6b656e20616c7265616479206d696e7465640000000081529050613ace565b6020808252810161092681614d95565b60ff811661344f565b60808101614dee828761385f565b614dfb6020830186614dd7565b614e08604083018561385f565b611a19606083018461385f56fe3c73766720786d6c6e733d22687474703a2f2f7777772e77332e6f72672f323030302f737667222077696474683d223130302522206865696768743d2231303025222076696577426f783d223020302032373020323730222066696c6c3d226e6f6e65223e3c706174682066696c6c3d2275726c282361292220643d224d302030683237307632373048307a222f3e3c646566733e3c66696c7465722069643d22622220636f6c6f722d696e746572706f6c6174696f6e2d66696c746572733d2273524742222066696c746572556e6974733d227573657253706163654f6e55736522206865696768743d22323730222077696474683d22323730223e3c666544726f70536861646f772064783d2230222064793d22312220737464446576696174696f6e3d22322220666c6f6f642d6f7061636974793d222e323235222077696474683d223230302522206865696768743d2232303025222f3e3c2f66696c7465723e3c2f646566733e3c7061746820643d224d31362e32392035392e36396131312e30362031312e30362030203020312031302e38332d382e37396831392e373263322e3134203020332e32392d312e313520332e35392d322e35362e33332d312e35372d2e34392d322e33392d322e36332d322e33394833342e3835632d392e3420302d31352e35382d342e37382d31332e32382d31352e373520322e34322d31312e35352031322e382d31352e38342032302e382d31352e38346831382e333563352e393320302031302e333620352e343620392e31352031312e323661322e36353320322e3635332030203020312d322e353920322e314834322e3231632d322e303620302d332e313120312e30372d332e333920322e3339732e333120322e343720322e333720322e34376831312e30356331312e383820302031372e343420362e312031352e34392031352e3432732d31302e352031362e32352d32312e38382031362e3235483230632d322e343120302d342e32312d322e32312d332e37312d342e35375a222066696c6c3d2223666666222f3e3c646566733e3c6c696e6561724772616469656e742069643d2261222078313d2230222079313d2230222078323d22323730222079323d2232373022206772616469656e74556e6974733d227573657253706163654f6e557365223e3c73746f702073746f702d636f6c6f723d2223303030303862222f3e3c73746f70206f66667365743d2231222073746f702d636f6c6f723d2223303034656261222073746f702d6f7061636974793d222e3939222f3e3c2f6c696e6561724772616469656e743e3c2f646566733e3c7465787420783d2232302e352220793d223233312220666f6e742d73697a653d223138222066696c6c3d2223666666222066696c7465723d2275726c282362292220666f6e742d66616d696c793d22506c7573204a616b617274612053616e732c44656a6156752053616e732c4e6f746f20436f6c6f7220456d6f6a692c4170706c6520436f6c6f7220456d6f6a692c73616e732d73657269662220666f6e742d7765696768743d22626f6c64223e4142434445464748494a4b4c4d4e4f505152535455565758595a6162636465666768696a6b6c6d6e6f707172737475767778797a303132333435363738392b2f416464726573733a206c6f772d6c6576656c2064656c65676174652063616c6c206661696c6564a264697066735822122016669a7971bd50db325f97afe6219e846e57bc7989ede9f658a54889e5ba29c564736f6c634300080e0033",
  "linkReferences": {},
  "deployedLinkReferences": {}
}