{
  "_format": "hh-sol-artifact-1",
  "contractName": "SubportDomains721vl",
  "sourceName": "contracts/subportDomains721v1.sol",
  "abi": [
    {
      "inputs": [],
      "stateMutability": "nonpayable",
      "type": "constructor"
    },
    {
      "anonymous": false,
      "inputs": [
        {
          "indexed": false,
          "internalType": "address",
          "name": "previousAdmin",
          "type": "address"
        },
        {
          "indexed": false,
          "internalType": "address",
          "name": "newAdmin",
          "type": "address"
        }
      ],
      "name": "AdminChanged",
      "type": "event"
    },
    {
      "anonymous": false,
      "inputs": [
        {
          "indexed": true,
          "internalType": "address",
          "name": "owner",
          "type": "address"
        },
        {
          "indexed": true,
          "internalType": "address",
          "name": "approved",
          "type": "address"
        },
        {
          "indexed": true,
          "internalType": "uint256",
          "name": "tokenId",
          "type": "uint256"
        }
      ],
      "name": "Approval",
      "type": "event"
    },
    {
      "anonymous": false,
      "inputs": [
        {
          "indexed": true,
          "internalType": "address",
          "name": "owner",
          "type": "address"
        },
        {
          "indexed": true,
          "internalType": "address",
          "name": "operator",
          "type": "address"
        },
        {
          "indexed": false,
          "internalType": "bool",
          "name": "approved",
          "type": "bool"
        }
      ],
      "name": "ApprovalForAll",
      "type": "event"
    },
    {
      "anonymous": false,
      "inputs": [
        {
          "indexed": true,
          "internalType": "address",
          "name": "beacon",
          "type": "address"
        }
      ],
      "name": "BeaconUpgraded",
      "type": "event"
    },
    {
      "anonymous": false,
      "inputs": [
        {
          "indexed": false,
          "internalType": "uint8",
          "name": "version",
          "type": "uint8"
        }
      ],
      "name": "Initialized",
      "type": "event"
    },
    {
      "anonymous": false,
      "inputs": [
        {
          "indexed": true,
          "internalType": "address",
          "name": "previousOwner",
          "type": "address"
        },
        {
          "indexed": true,
          "internalType": "address",
          "name": "newOwner",
          "type": "address"
        }
      ],
      "name": "OwnershipTransferred",
      "type": "event"
    },
    {
      "anonymous": false,
      "inputs": [
        {
          "indexed": false,
          "internalType": "address",
          "name": "account",
          "type": "address"
        }
      ],
      "name": "Paused",
      "type": "event"
    },
    {
      "anonymous": false,
      "inputs": [
        {
          "indexed": true,
          "internalType": "address",
          "name": "from",
          "type": "address"
        },
        {
          "indexed": true,
          "internalType": "address",
          "name": "to",
          "type": "address"
        },
        {
          "indexed": true,
          "internalType": "uint256",
          "name": "tokenId",
          "type": "uint256"
        }
      ],
      "name": "Transfer",
      "type": "event"
    },
    {
      "anonymous": false,
      "inputs": [
        {
          "indexed": false,
          "internalType": "address",
          "name": "account",
          "type": "address"
        }
      ],
      "name": "Unpaused",
      "type": "event"
    },
    {
      "anonymous": false,
      "inputs": [
        {
          "indexed": true,
          "internalType": "address",
          "name": "implementation",
          "type": "address"
        }
      ],
      "name": "Upgraded",
      "type": "event"
    },
    {
      "inputs": [
        {
          "internalType": "address",
          "name": "to",
          "type": "address"
        },
        {
          "internalType": "uint256",
          "name": "tokenId",
          "type": "uint256"
        }
      ],
      "name": "approve",
      "outputs": [],
      "stateMutability": "nonpayable",
      "type": "function"
    },
    {
      "inputs": [
        {
          "internalType": "address",
          "name": "owner",
          "type": "address"
        }
      ],
      "name": "balanceOf",
      "outputs": [
        {
          "internalType": "uint256",
          "name": "",
          "type": "uint256"
        }
      ],
      "stateMutability": "view",
      "type": "function"
    },
    {
      "inputs": [
        {
          "internalType": "uint256",
          "name": "tokenId",
          "type": "uint256"
        }
      ],
      "name": "burn",
      "outputs": [],
      "stateMutability": "nonpayable",
      "type": "function"
    },
    {
      "inputs": [
        {
          "internalType": "string",
          "name": "",
          "type": "string"
        }
      ],
      "name": "domains",
      "outputs": [
        {
          "internalType": "address",
          "name": "",
          "type": "address"
        }
      ],
      "stateMutability": "view",
      "type": "function"
    },
    {
      "inputs": [
        {
          "internalType": "string",
          "name": "name",
          "type": "string"
        }
      ],
      "name": "getAddress",
      "outputs": [
        {
          "internalType": "address",
          "name": "",
          "type": "address"
        }
      ],
      "stateMutability": "view",
      "type": "function"
    },
    {
      "inputs": [],
      "name": "getAllNames",
      "outputs": [
        {
          "internalType": "string[]",
          "name": "",
          "type": "string[]"
        }
      ],
      "stateMutability": "view",
      "type": "function"
    },
    {
      "inputs": [
        {
          "internalType": "uint256",
          "name": "tokenId",
          "type": "uint256"
        }
      ],
      "name": "getApproved",
      "outputs": [
        {
          "internalType": "address",
          "name": "",
          "type": "address"
        }
      ],
      "stateMutability": "view",
      "type": "function"
    },
    {
      "inputs": [
        {
          "internalType": "string",
          "name": "name",
          "type": "string"
        }
      ],
      "name": "getRole",
      "outputs": [
        {
          "internalType": "string",
          "name": "",
          "type": "string"
        }
      ],
      "stateMutability": "view",
      "type": "function"
    },
    {
      "inputs": [
        {
          "internalType": "string",
          "name": "_tld",
          "type": "string"
        },
        {
          "internalType": "string",
          "name": "_role1",
          "type": "string"
        },
        {
          "internalType": "string",
          "name": "_role2",
          "type": "string"
        }
      ],
      "name": "initialize",
      "outputs": [],
      "stateMutability": "nonpayable",
      "type": "function"
    },
    {
      "inputs": [
        {
          "internalType": "address",
          "name": "owner",
          "type": "address"
        },
        {
          "internalType": "address",
          "name": "operator",
          "type": "address"
        }
      ],
      "name": "isApprovedForAll",
      "outputs": [
        {
          "internalType": "bool",
          "name": "",
          "type": "bool"
        }
      ],
      "stateMutability": "view",
      "type": "function"
    },
    {
      "inputs": [],
      "name": "isBeta",
      "outputs": [
        {
          "internalType": "bool",
          "name": "",
          "type": "bool"
        }
      ],
      "stateMutability": "view",
      "type": "function"
    },
    {
      "inputs": [],
      "name": "name",
      "outputs": [
        {
          "internalType": "string",
          "name": "",
          "type": "string"
        }
      ],
      "stateMutability": "view",
      "type": "function"
    },
    {
      "inputs": [
        {
          "internalType": "uint256",
          "name": "",
          "type": "uint256"
        }
      ],
      "name": "names",
      "outputs": [
        {
          "internalType": "string",
          "name": "",
          "type": "string"
        }
      ],
      "stateMutability": "view",
      "type": "function"
    },
    {
      "inputs": [],
      "name": "openToPublic",
      "outputs": [
        {
          "internalType": "bool",
          "name": "",
          "type": "bool"
        }
      ],
      "stateMutability": "view",
      "type": "function"
    },
    {
      "inputs": [],
      "name": "owner",
      "outputs": [
        {
          "internalType": "address",
          "name": "",
          "type": "address"
        }
      ],
      "stateMutability": "view",
      "type": "function"
    },
    {
      "inputs": [
        {
          "internalType": "uint256",
          "name": "tokenId",
          "type": "uint256"
        }
      ],
      "name": "ownerOf",
      "outputs": [
        {
          "internalType": "address",
          "name": "",
          "type": "address"
        }
      ],
      "stateMutability": "view",
      "type": "function"
    },
    {
      "inputs": [],
      "name": "pause",
      "outputs": [],
      "stateMutability": "nonpayable",
      "type": "function"
    },
    {
      "inputs": [],
      "name": "paused",
      "outputs": [
        {
          "internalType": "bool",
          "name": "",
          "type": "bool"
        }
      ],
      "stateMutability": "view",
      "type": "function"
    },
    {
      "inputs": [
        {
          "internalType": "string",
          "name": "name",
          "type": "string"
        }
      ],
      "name": "price",
      "outputs": [
        {
          "internalType": "uint256",
          "name": "",
          "type": "uint256"
        }
      ],
      "stateMutability": "view",
      "type": "function"
    },
    {
      "inputs": [],
      "name": "proxiableUUID",
      "outputs": [
        {
          "internalType": "bytes32",
          "name": "",
          "type": "bytes32"
        }
      ],
      "stateMutability": "view",
      "type": "function"
    },
    {
      "inputs": [
        {
          "internalType": "bytes",
          "name": "signature",
          "type": "bytes"
        },
        {
          "internalType": "string",
          "name": "name",
          "type": "string"
        },
        {
          "internalType": "string",
          "name": "role",
          "type": "string"
        }
      ],
      "name": "register",
      "outputs": [],
      "stateMutability": "payable",
      "type": "function"
    },
    {
      "inputs": [],
      "name": "renounceOwnership",
      "outputs": [],
      "stateMutability": "nonpayable",
      "type": "function"
    },
    {
      "inputs": [
        {
          "internalType": "string",
          "name": "name",
          "type": "string"
        },
        {
          "internalType": "string",
          "name": "role",
          "type": "string"
        }
      ],
      "name": "reserve",
      "outputs": [],
      "stateMutability": "nonpayable",
      "type": "function"
    },
    {
      "inputs": [],
      "name": "role1",
      "outputs": [
        {
          "internalType": "string",
          "name": "",
          "type": "string"
        }
      ],
      "stateMutability": "view",
      "type": "function"
    },
    {
      "inputs": [],
      "name": "role2",
      "outputs": [
        {
          "internalType": "string",
          "name": "",
          "type": "string"
        }
      ],
      "stateMutability": "view",
      "type": "function"
    },
    {
      "inputs": [
        {
          "internalType": "string",
          "name": "",
          "type": "string"
        }
      ],
      "name": "roles",
      "outputs": [
        {
          "internalType": "string",
          "name": "",
          "type": "string"
        }
      ],
      "stateMutability": "view",
      "type": "function"
    },
    {
      "inputs": [
        {
          "internalType": "address",
          "name": "from",
          "type": "address"
        },
        {
          "internalType": "address",
          "name": "to",
          "type": "address"
        },
        {
          "internalType": "uint256",
          "name": "tokenId",
          "type": "uint256"
        }
      ],
      "name": "safeTransferFrom",
      "outputs": [],
      "stateMutability": "nonpayable",
      "type": "function"
    },
    {
      "inputs": [
        {
          "internalType": "address",
          "name": "from",
          "type": "address"
        },
        {
          "internalType": "address",
          "name": "to",
          "type": "address"
        },
        {
          "internalType": "uint256",
          "name": "tokenId",
          "type": "uint256"
        },
        {
          "internalType": "bytes",
          "name": "data",
          "type": "bytes"
        }
      ],
      "name": "safeTransferFrom",
      "outputs": [],
      "stateMutability": "nonpayable",
      "type": "function"
    },
    {
      "inputs": [
        {
          "internalType": "address",
          "name": "operator",
          "type": "address"
        },
        {
          "internalType": "bool",
          "name": "approved",
          "type": "bool"
        }
      ],
      "name": "setApprovalForAll",
      "outputs": [],
      "stateMutability": "nonpayable",
      "type": "function"
    },
    {
      "inputs": [
        {
          "internalType": "string",
          "name": "contractURI",
          "type": "string"
        }
      ],
      "name": "setContractURI",
      "outputs": [],
      "stateMutability": "nonpayable",
      "type": "function"
    },
    {
      "inputs": [
        {
          "internalType": "address",
          "name": "newSignerAddress",
          "type": "address"
        }
      ],
      "name": "setSignerAddress",
      "outputs": [],
      "stateMutability": "nonpayable",
      "type": "function"
    },
    {
      "inputs": [
        {
          "internalType": "bytes4",
          "name": "interfaceId",
          "type": "bytes4"
        }
      ],
      "name": "supportsInterface",
      "outputs": [
        {
          "internalType": "bool",
          "name": "",
          "type": "bool"
        }
      ],
      "stateMutability": "view",
      "type": "function"
    },
    {
      "inputs": [],
      "name": "symbol",
      "outputs": [
        {
          "internalType": "string",
          "name": "",
          "type": "string"
        }
      ],
      "stateMutability": "view",
      "type": "function"
    },
    {
      "inputs": [],
      "name": "tld",
      "outputs": [
        {
          "internalType": "string",
          "name": "",
          "type": "string"
        }
      ],
      "stateMutability": "view",
      "type": "function"
    },
    {
      "inputs": [],
      "name": "toggleBeta",
      "outputs": [],
      "stateMutability": "nonpayable",
      "type": "function"
    },
    {
      "inputs": [],
      "name": "toggleSale",
      "outputs": [],
      "stateMutability": "nonpayable",
      "type": "function"
    },
    {
      "inputs": [
        {
          "internalType": "uint256",
          "name": "tokenId",
          "type": "uint256"
        }
      ],
      "name": "tokenURI",
      "outputs": [
        {
          "internalType": "string",
          "name": "",
          "type": "string"
        }
      ],
      "stateMutability": "view",
      "type": "function"
    },
    {
      "inputs": [
        {
          "internalType": "address",
          "name": "from",
          "type": "address"
        },
        {
          "internalType": "address",
          "name": "to",
          "type": "address"
        },
        {
          "internalType": "uint256",
          "name": "tokenId",
          "type": "uint256"
        }
      ],
      "name": "transferFrom",
      "outputs": [],
      "stateMutability": "nonpayable",
      "type": "function"
    },
    {
      "inputs": [
        {
          "internalType": "address",
          "name": "newOwner",
          "type": "address"
        }
      ],
      "name": "transferOwnership",
      "outputs": [],
      "stateMutability": "nonpayable",
      "type": "function"
    },
    {
      "inputs": [],
      "name": "unpause",
      "outputs": [],
      "stateMutability": "nonpayable",
      "type": "function"
    },
    {
      "inputs": [
        {
          "internalType": "address",
          "name": "newImplementation",
          "type": "address"
        }
      ],
      "name": "upgradeTo",
      "outputs": [],
      "stateMutability": "nonpayable",
      "type": "function"
    },
    {
      "inputs": [
        {
          "internalType": "address",
          "name": "newImplementation",
          "type": "address"
        },
        {
          "internalType": "bytes",
          "name": "data",
          "type": "bytes"
        }
      ],
      "name": "upgradeToAndCall",
      "outputs": [],
      "stateMutability": "payable",
      "type": "function"
    },
    {
      "inputs": [
        {
          "internalType": "string",
          "name": "name",
          "type": "string"
        }
      ],
      "name": "valid",
      "outputs": [
        {
          "internalType": "bool",
          "name": "",
          "type": "bool"
        }
      ],
      "stateMutability": "pure",
      "type": "function"
    },
    {
      "inputs": [],
      "name": "withdraw",
      "outputs": [],
      "stateMutability": "nonpayable",
      "type": "function"
    }
  ],
  "bytecode": "0x60a0604052306080523480156200001557600080fd5b506200002062000026565b62000116565b600054610100900460ff16156200005a5760405162461bcd60e51b81526004016200005190620000b4565b60405180910390fd5b60005460ff9081161015620000b2576000805460ff191660ff9081179091556040517f7f26b83ff96e1f2b6a682f133852f6798a09c465da95921460cefb384740249891620000a99162000106565b60405180910390a15b565b602080825281016200010081602781527f496e697469616c697a61626c653a20636f6e747261637420697320696e697469602082015266616c697a696e6760c81b604082015260600190565b92915050565b60ff821681526020810162000100565b6080516153356200014e60003960008181610beb01528181610c2b01528181611285015281816112c5015261137401526153356000f3fe6080604052600436106102e75760003560e01c80636352211e11610184578063a22cb465116100d6578063c87b56dd1161008a578063f2fde38b11610064578063f2fde38b146107f2578063fb825e5f14610812578063fe2c61981461083457600080fd5b8063c87b56dd14610774578063e985e9c514610794578063ed0908df146107dd57600080fd5b8063b88d4fde116100bb578063b88d4fde14610714578063bb56873f14610734578063bf40fac11461075457600080fd5b8063a22cb465146106d4578063a6487c53146106f457600080fd5b80637d8966e411610138578063938e3d7b11610112578063938e3d7b1461067f57806395d89b411461069f5780639791c097146106b457600080fd5b80637d8966e4146106375780638456cb591461064c5780638da5cb5b1461066157600080fd5b80636e9067fb116101695780636e9067fb146105e257806370a0823114610602578063715018a61461062257600080fd5b80636352211e146105a05780636ca1d96a146105c057600080fd5b80633ccfd60b1161023d5780634d431f19116101f157806352d1902d116101cb57806352d1902d1461054657806358229591146105685780635c975abb1461058857600080fd5b80634d431f191461050b5780634f1ef2861461051e578063514f2e041461053157600080fd5b806342842e0e1161022257806342842e0e146104ab57806342966c68146104cb5780634622ab03146104eb57600080fd5b80633ccfd60b146104815780633f4ba83a1461049657600080fd5b806316ad2ac31161029f5780632644923511610279578063264492351461040a5780632d5514321461044c5780633659cfe61461046157600080fd5b806316ad2ac3146103b35780631831ccf2146103c857806323b872dd146103ea57600080fd5b806306fdde03116102d057806306fdde0314610344578063081812fc14610366578063095ea7b31461039357600080fd5b806301ffc9a7146102ec578063046dc16614610322575b600080fd5b3480156102f857600080fd5b5061030c610307366004613437565b610854565b6040516103199190613462565b60405180910390f35b34801561032e57600080fd5b5061034261033d366004613495565b610939565b005b34801561035057600080fd5b50610359610964565b6040516103199190613514565b34801561037257600080fd5b50610386610381366004613536565b6109f6565b6040516103199190613560565b34801561039f57600080fd5b506103426103ae36600461356e565b610a1d565b3480156103bf57600080fd5b50610342610aab565b3480156103d457600080fd5b506101c75461030c90600160a01b900460ff1681565b3480156103f657600080fd5b506103426104053660046135ab565b610b20565b34801561041657600080fd5b506103866104253660046136ee565b80516020818301810180516101cc825292820191909301209152546001600160a01b031681565b34801561045857600080fd5b50610359610b52565b34801561046d57600080fd5b5061034261047c366004613495565b610be1565b34801561048d57600080fd5b50610342610cd2565b3480156104a257600080fd5b50610342610d48565b3480156104b757600080fd5b506103426104c63660046135ab565b610d5a565b3480156104d757600080fd5b506103426104e6366004613536565b610d75565b3480156104f757600080fd5b50610359610506366004613536565b610da3565b610342610519366004613774565b610dbd565b61034261052c36600461381e565b61127b565b34801561053d57600080fd5b50610359611359565b34801561055257600080fd5b5061055b611367565b6040516103199190613872565b34801561057457600080fd5b50610342610583366004613880565b6113d6565b34801561059457600080fd5b5060c95460ff1661030c565b3480156105ac57600080fd5b506103866105bb366004613536565b6117fe565b3480156105cc57600080fd5b506101c75461030c90600160a81b900460ff1681565b3480156105ee57600080fd5b506103596105fd3660046138f9565b611833565b34801561060e57600080fd5b5061055b61061d366004613495565b6118e7565b34801561062e57600080fd5b5061034261192b565b34801561064357600080fd5b5061034261193d565b34801561065857600080fd5b5061034261199b565b34801561066d57600080fd5b5060fb546001600160a01b0316610386565b34801561068b57600080fd5b5061034261069a3660046136ee565b6119ab565b3480156106ab57600080fd5b506103596119c7565b3480156106c057600080fd5b5061030c6106cf3660046138f9565b6119d6565b3480156106e057600080fd5b506103426106ef366004613954565b611a2f565b34801561070057600080fd5b5061034261070f366004613987565b611a3a565b34801561072057600080fd5b5061034261072f366004613a1d565b611cbe565b34801561074057600080fd5b5061035961074f3660046136ee565b611cf0565b34801561076057600080fd5b5061038661076f3660046138f9565b611d15565b34801561078057600080fd5b5061035961078f366004613536565b611d4b565b3480156107a057600080fd5b5061030c6107af366004613a9c565b6001600160a01b039182166000908152606a6020908152604080832093909416825291909152205460ff1690565b3480156107e957600080fd5b50610359611d56565b3480156107fe57600080fd5b5061034261080d366004613495565b611d64565b34801561081e57600080fd5b50610827611d9b565b6040516103199190613b45565b34801561084057600080fd5b5061055b61084f3660046138f9565b611e6a565b60007fffffffff0000000000000000000000000000000000000000000000000000000082167f80ac58cd0000000000000000000000000000000000000000000000000000000014806108e757507fffffffff0000000000000000000000000000000000000000000000000000000082167f5b5e139f00000000000000000000000000000000000000000000000000000000145b8061093357507f01ffc9a7000000000000000000000000000000000000000000000000000000007fffffffff000000000000000000000000000000000000000000000000000000008316145b92915050565b610941611ed9565b6101c780546001600160a01b0319166001600160a01b0392909216919091179055565b60606065805461097390613b6c565b80601f016020809104026020016040519081016040528092919081815260200182805461099f90613b6c565b80156109ec5780601f106109c1576101008083540402835291602001916109ec565b820191906000526020600020905b8154815290600101906020018083116109cf57829003601f168201915b5050505050905090565b6000610a0182611f03565b506000908152606960205260409020546001600160a01b031690565b6000610a28826117fe565b9050806001600160a01b0316836001600160a01b031603610a645760405162461bcd60e51b8152600401610a5b90613bec565b60405180910390fd5b336001600160a01b0382161480610a805750610a8081336107af565b610a9c5760405162461bcd60e51b8152600401610a5b90613c54565b610aa68383611f37565b505050565b610ab3611ed9565b6101c754600160a01b900460ff16610aca57600080fd5b6101c754600160a81b900460ff16610ae3576001610ae6565b60005b6101c78054911515600160a81b027fffffffffffffffffffff00ffffffffffffffffffffffffffffffffffffffffff909216919091179055565b610b2b335b82611fa5565b610b475760405162461bcd60e51b8152600401610a5b90613cbc565b610aa6838383612024565b6101c48054610b6090613b6c565b80601f0160208091040260200160405190810160405280929190818152602001828054610b8c90613b6c565b8015610bd95780601f10610bae57610100808354040283529160200191610bd9565b820191906000526020600020905b815481529060010190602001808311610bbc57829003601f168201915b505050505081565b6001600160a01b037f0000000000000000000000000000000000000000000000000000000000000000163003610c295760405162461bcd60e51b8152600401610a5b90613d24565b7f00000000000000000000000000000000000000000000000000000000000000006001600160a01b0316610c847f360894a13ba1a3210667c828492db98dca3e2076cc3735a920a3ca505d382bbc546001600160a01b031690565b6001600160a01b031614610caa5760405162461bcd60e51b8152600401610a5b90613d8c565b610cb381612159565b60408051600080825260208201909252610ccf91839190612161565b50565b610cda611ed9565b6040514790600090339083908381818185875af1925050503d8060008114610d1e576040519150601f19603f3d011682016040523d82523d6000602084013e610d23565b606091505b5050905080610d445760405162461bcd60e51b8152600401610a5b90613dce565b5050565b610d50611ed9565b610d58612255565b565b610aa683838360405180602001604052806000815250611cbe565b610d7e33610b25565b610d9a5760405162461bcd60e51b8152600401610a5b90613cbc565b610ccf816122a1565b6101ce6020526000908152604090208054610b6090613b6c565b83838383610dcb84846119d6565b8484604051602001610dde929190613dee565b60405160208183030381529060405290610e0b5760405162461bcd60e51b8152600401610a5b9190613514565b5060006001600160a01b03166101cc8585604051610e2a929190613e1f565b908152604051908190036020019020546001600160a01b031614610e605760405162461bcd60e51b8152600401610a5b90613e5c565b604080518082018252600781527f63726561746f7200000000000000000000000000000000000000000000000000602090910152517f0d1f301a4d55e328cfe2f78743e489a98cedaf66d744b3ab1bb877ff82930b0b90610ec49084908490613e1f565b60405180910390201480610f295750604080518082018252600581526430b236b4b760d91b602090910152517ff23ec0bb4210edd5cba85afd05127efcd2fc6a781bfed49188da1081670b22d890610f1f9084908490613e1f565b6040518091039020145b80610f9d5750604080518082018252600981527f636f6c6c6563746f720000000000000000000000000000000000000000000000602090910152517f57cfa32382416828aee86644cafefdbb1cde02d7764467b9d6062b5a1fd2b5a490610f939084908490613e1f565b6040518091039020145b610fb95760405162461bcd60e51b8152600401610a5b90613e9e565b604080518082018252600581526430b236b4b760d91b602090910152517ff23ec0bb4210edd5cba85afd05127efcd2fc6a781bfed49188da1081670b22d8906110059084908490613e1f565b604051809103902014158061102557506101c6546001600160a01b031633145b6110415760405162461bcd60e51b8152600401610a5b90613f06565b6101c754600160a01b900460ff1661106b5760405162461bcd60e51b8152600401610a5b90613f48565b611074896122aa565b6110905760405162461bcd60e51b8152600401610a5b90613f8a565b600161109b336118e7565b106110b85760405162461bcd60e51b8152600401610a5b90613ff2565b60006110c48989611e6a565b9050803410156110e65760405162461bcd60e51b8152600401610a5b90614034565b600089896101c46040516020016110ff939291906140b2565b604051602081830303815290604052905060006101ca826101cb60405160200161112b939291906140f9565b60408051601f198184030181526020601f8e018190048102840181019092528c835292506000916111bd918e908e9081908401838280828437600081840152601f19601f820116905080830192505050505050508b8b8080601f016020809104026020016040519081016040528093929190818152602001838380828437600092019190915250879250612302915050565b6040516020016111cd919061410f565b604051602081830303815290604052905060006111ea6101c35490565b90506111f6338261234f565b6112008183612369565b336101cc8e8e604051611214929190613e1f565b908152604080516020928190038301902080546001600160a01b0319166001600160a01b03949094169390931790925560008381526101ce9091522061125b908e8e6132ba565b5061126b6101c380546001019055565b5050505050505050505050505050565b6001600160a01b037f00000000000000000000000000000000000000000000000000000000000000001630036112c35760405162461bcd60e51b8152600401610a5b90613d24565b7f00000000000000000000000000000000000000000000000000000000000000006001600160a01b031661131e7f360894a13ba1a3210667c828492db98dca3e2076cc3735a920a3ca505d382bbc546001600160a01b031690565b6001600160a01b0316146113445760405162461bcd60e51b8152600401610a5b90613d8c565b61134d82612159565b610d4482826001612161565b6101c88054610b6090613b6c565b6000306001600160a01b037f000000000000000000000000000000000000000000000000000000000000000016146113b15760405162461bcd60e51b8152600401610a5b90614197565b507f360894a13ba1a3210667c828492db98dca3e2076cc3735a920a3ca505d382bbc90565b838383836113e484846119d6565b84846040516020016113f7929190613dee565b604051602081830303815290604052906114245760405162461bcd60e51b8152600401610a5b9190613514565b5060006001600160a01b03166101cc8585604051611443929190613e1f565b908152604051908190036020019020546001600160a01b0316146114795760405162461bcd60e51b8152600401610a5b90613e5c565b604080518082018252600781527f63726561746f7200000000000000000000000000000000000000000000000000602090910152517f0d1f301a4d55e328cfe2f78743e489a98cedaf66d744b3ab1bb877ff82930b0b906114dd9084908490613e1f565b604051809103902014806115425750604080518082018252600581526430b236b4b760d91b602090910152517ff23ec0bb4210edd5cba85afd05127efcd2fc6a781bfed49188da1081670b22d8906115389084908490613e1f565b6040518091039020145b806115b65750604080518082018252600981527f636f6c6c6563746f720000000000000000000000000000000000000000000000602090910152517f57cfa32382416828aee86644cafefdbb1cde02d7764467b9d6062b5a1fd2b5a4906115ac9084908490613e1f565b6040518091039020145b6115d25760405162461bcd60e51b8152600401610a5b90613e9e565b604080518082018252600581526430b236b4b760d91b602090910152517ff23ec0bb4210edd5cba85afd05127efcd2fc6a781bfed49188da1081670b22d89061161e9084908490613e1f565b604051809103902014158061163e57506101c6546001600160a01b031633145b61165a5760405162461bcd60e51b8152600401610a5b90613f06565b611662611ed9565b600088886101c460405160200161167b939291906140b2565b604051602081830303815290604052905060006101ca826101cb6040516020016116a7939291906140f9565b604051602081830303815290604052905060006116c46101c35490565b9050600061174e8c8c8080601f016020809104026020016040519081016040528093929190818152602001838380828437600081840152601f19601f820116905080830192505050505050508b8b8080601f016020809104026020016040519081016040528093929190818152602001838380828437600092019190915250889250612302915050565b60405160200161175e919061410f565b6040516020818303038152906040529050611779338361234f565b6117838282612369565b60008281526101ce6020526040902061179d908d8d6132ba565b50336101cc8d8d6040516117b2929190613e1f565b90815260405190819003602001902080546001600160a01b03929092166001600160a01b03199092169190911790556117f06101c380546001019055565b505050505050505050505050565b6000818152606760205260408120546001600160a01b0316806109335760405162461bcd60e51b8152600401610a5b906141d9565b60606101cd8383604051611848929190613e1f565b9081526020016040518091039020805461186190613b6c565b80601f016020809104026020016040519081016040528092919081815260200182805461188d90613b6c565b80156118da5780601f106118af576101008083540402835291602001916118da565b820191906000526020600020905b8154815290600101906020018083116118bd57829003601f168201915b5050505050905092915050565b60006001600160a01b03821661190f5760405162461bcd60e51b8152600401610a5b90614241565b506001600160a01b031660009081526068602052604090205490565b611933611ed9565b610d5860006123bc565b611945611ed9565b6101c754600160a01b900460ff1661195e576001611961565b60005b6101c78054911515600160a01b027fffffffffffffffffffffff00ffffffffffffffffffffffffffffffffffffffff909216919091179055565b6119a3611ed9565b610d5861240e565b6119b3611ed9565b8051610d44906101c590602084019061333e565b60606066805461097390613b6c565b60008083838080601f016020809104026020016040519081016040528093929190818152602001838380828437600092019190915250508251929350505060038110801590611a26575060128111155b95945050505050565b610d4433838361244b565b600054610100900460ff1615808015611a5a5750600054600160ff909116105b80611a745750303b158015611a74575060005460ff166001145b611a905760405162461bcd60e51b8152600401610a5b906142a9565b6000805460ff191660011790558015611ab3576000805461ff0019166101001790555b611b276040518060400160405280600781526020017f737562706f7274000000000000000000000000000000000000000000000000008152506040518060400160405280600581526020017f53425052540000000000000000000000000000000000000000000000000000008152506124ed565b611b2f61251e565b611b37612545565b611b3f612574565b611b4761251e565b611b4f61251e565b8351611b63906101c490602087019061333e565b506101c780547fffffffffffffffffff000000ffffffffffffffffffffffffffffffffffffffff16760101010000000000000000000000000000000000000000179055604080516104a08101909152610476808252614e2360208301398051611bd5916101ca9160209091019061333e565b5060408051808201909152600d8082527f3c2f746578743e3c2f7376673e000000000000000000000000000000000000006020909201918252611c1b916101cb9161333e565b506101c780546001600160a01b031916737b41de805578cb93f4d4758cea533e526eefef491790558251611c57906101c890602086019061333e565b508151611c6c906101c990602085019061333e565b508015611cb8576000805461ff00191690556040517f7f26b83ff96e1f2b6a682f133852f6798a09c465da95921460cefb384740249890611caf906001906142cd565b60405180910390a15b50505050565b611cc83383611fa5565b611ce45760405162461bcd60e51b8152600401610a5b90613cbc565b611cb8848484846125a3565b80516020818301810180516101cd8252928201919093012091528054610b6090613b6c565b60006101cc8383604051611d2a929190613e1f565b908152604051908190036020019020546001600160a01b0316905092915050565b6060610933826125d6565b6101c98054610b6090613b6c565b611d6c611ed9565b6001600160a01b038116611d925760405162461bcd60e51b8152600401610a5b90614333565b610ccf816123bc565b60606000611da96101c35490565b67ffffffffffffffff811115611dc157611dc16135fb565b604051908082528060200260200182016040528015611df457816020015b6060815260200190600190039081611ddf5790505b50905060005b6101c354811015611e645760008181526101ce60209081526040918290209151611e25929101614343565b604051602081830303815290604052828281518110611e4657611e4661434d565b60200260200101819052508080611e5c90614379565b915050611dfa565b50919050565b60008180611e7757600080fd5b6101c754600160a81b900460ff1615611e94576000915050610933565b60058111611eae5768015af1d78b58c40000915050610933565b80600403611ec8576801158e460913d00000915050610933565b67d02ab486cedc0000915050610933565b60fb546001600160a01b03163314610d585760405162461bcd60e51b8152600401610a5b906143c3565b6000818152606760205260409020546001600160a01b0316610ccf5760405162461bcd60e51b8152600401610a5b906141d9565b600081815260696020526040902080546001600160a01b0319166001600160a01b0384169081179091558190611f6c826117fe565b6001600160a01b03167f8c5be1e5ebec7d5bd14f71427d1e84f3dd0314c0f7b2291e5b200ac8c7c3b92560405160405180910390a45050565b600080611fb1836117fe565b9050806001600160a01b0316846001600160a01b03161480611ff857506001600160a01b038082166000908152606a602090815260408083209388168352929052205460ff165b8061201c5750836001600160a01b0316612011846109f6565b6001600160a01b0316145b949350505050565b826001600160a01b0316612037826117fe565b6001600160a01b03161461205d5760405162461bcd60e51b8152600401610a5b9061442b565b6001600160a01b0382166120835760405162461bcd60e51b8152600401610a5b90614493565b61209083838360016126de565b826001600160a01b03166120a3826117fe565b6001600160a01b0316146120c95760405162461bcd60e51b8152600401610a5b9061442b565b600081815260696020908152604080832080546001600160a01b03199081169091556001600160a01b0387811680865260688552838620805460001901905590871680865283862080546001019055868652606790945282852080549092168417909155905184937fddf252ad1be2c89b69c2b068fc378daa952ba7f163c4a11628f55a4df523b3ef91a4505050565b610ccf611ed9565b7f4910fdfa16fed3260ed0e7147f7cc6da11a60208b5b9406d12a635614ffd91435460ff161561219457610aa6836126eb565b826001600160a01b03166352d1902d6040518163ffffffff1660e01b8152600401602060405180830381865afa9250505080156121ee575060408051601f3d908101601f191682019092526121eb918101906144ae565b60015b61220a5760405162461bcd60e51b8152600401610a5b90614527565b7f360894a13ba1a3210667c828492db98dca3e2076cc3735a920a3ca505d382bbc81146122495760405162461bcd60e51b8152600401610a5b9061458f565b50610aa6838383612753565b61225d612778565b60c9805460ff191690557f5db9ee0a495bf2e6ff9c91a7834c1ba4fdd244a5e8aa4e537bd38aeae4b073aa335b6040516122979190613560565b60405180910390a1565b610ccf8161279a565b600080336040516020016122be91906145c7565b6040516020818303038152906040528051906020012090506122e9836122e3836127da565b9061280a565b6101c7546001600160a01b039081169116149392505050565b60606000612344856101c46123168661282e565b87896101c46040516020016123309695949392919061462b565b60405160208183030381529060405261282e565b9150505b9392505050565b610d448282604051806020016040528060008152506129ed565b6000828152606760205260409020546001600160a01b031661239d5760405162461bcd60e51b8152600401610a5b906148c6565b60008281526097602090815260409091208251610aa69284019061333e565b60fb80546001600160a01b038381166001600160a01b0319831681179093556040519116919082907f8be0079c531659141344cd1fd0a4f28419497f9722a3daafe3b4186f6b6457e090600090a35050565b612416612a20565b60c9805460ff191660011790557f62e78cea01bee320cd4e420270b5ea74000d11b0c9f74754ebdbfc544b05a25861228a3390565b816001600160a01b0316836001600160a01b03160361247c5760405162461bcd60e51b8152600401610a5b90614908565b6001600160a01b038381166000818152606a602090815260408083209487168084529490915290819020805460ff1916851515179055517f17307eab39ab6107e8899845ad3d59bd9653f200f220920489ca2b5937696c31906124e0908590613462565b60405180910390a3505050565b600054610100900460ff166125145760405162461bcd60e51b8152600401610a5b90614970565b610d448282612a43565b600054610100900460ff16610d585760405162461bcd60e51b8152600401610a5b90614970565b600054610100900460ff1661256c5760405162461bcd60e51b8152600401610a5b90614970565b610d58612a91565b600054610100900460ff1661259b5760405162461bcd60e51b8152600401610a5b90614970565b610d58612ac4565b6125ae848484612024565b6125ba84848484612af4565b611cb85760405162461bcd60e51b8152600401610a5b906149d8565b60606125e182611f03565b600082815260976020526040812080546125fa90613b6c565b80601f016020809104026020016040519081016040528092919081815260200182805461262690613b6c565b80156126735780601f1061264857610100808354040283529160200191612673565b820191906000526020600020905b81548152906001019060200180831161265657829003601f168201915b50505050509050600061269160408051602081019091526000815290565b905080516000036126a3575092915050565b8151156126d55780826040516020016126bd9291906149e8565b60405160208183030381529060405292505050919050565b61201c84612c3f565b6126e6612a20565b611cb8565b6001600160a01b0381163b6127125760405162461bcd60e51b8152600401610a5b90614a56565b7f360894a13ba1a3210667c828492db98dca3e2076cc3735a920a3ca505d382bbc80546001600160a01b0319166001600160a01b0392909216919091179055565b61275c83612cb2565b6000825111806127695750805b15610aa657611cb88383612cf2565b60c95460ff16610d585760405162461bcd60e51b8152600401610a5b90614a98565b6127a381612d9e565b600081815260976020526040902080546127bc90613b6c565b159050610ccf576000818152609760205260408120610ccf916133b2565b6000816040516020016127ed9190614aa8565b604051602081830303815290604052805190602001209050919050565b60008060006128198585612e41565b9150915061282681612e86565b509392505050565b80516060906000819003612852575050604080516020810190915260008152919050565b60006003612861836002614ae0565b61286b9190614b09565b612876906004614b1d565b90506000612885826020614ae0565b67ffffffffffffffff81111561289d5761289d6135fb565b6040519080825280601f01601f1916602001820160405280156128c7576020820181803683370190505b5090506000604051806060016040528060408152602001615299604091399050600181016020830160005b86811015612953576003818a01810151603f601282901c8116860151600c83901c8216870151600684901c831688015192909316870151600891821b60ff94851601821b92841692909201901b91160160e01b8352600490920191016128f2565b50600386066001811461296d57600281146129b7576129df565b7f3d3d0000000000000000000000000000000000000000000000000000000000007ffffffffffffffffffffffffffffffffffffffffffffffffffffffffffffffffe8301526129df565b7f3d000000000000000000000000000000000000000000000000000000000000006000198301525b505050918152949350505050565b6129f78383612f35565b612a046000848484612af4565b610aa65760405162461bcd60e51b8152600401610a5b906149d8565b60c95460ff1615610d585760405162461bcd60e51b8152600401610a5b90614b6e565b600054610100900460ff16612a6a5760405162461bcd60e51b8152600401610a5b90614970565b8151612a7d90606590602085019061333e565b508051610aa690606690602084019061333e565b600054610100900460ff16612ab85760405162461bcd60e51b8152600401610a5b90614970565b60c9805460ff19169055565b600054610100900460ff16612aeb5760405162461bcd60e51b8152600401610a5b90614970565b610d58336123bc565b60006001600160a01b0384163b15612c34576040517f150b7a020000000000000000000000000000000000000000000000000000000081526001600160a01b0385169063150b7a0290612b51903390899088908890600401614b7e565b6020604051808303816000875af1925050508015612b8c575060408051601f3d908101601f19168201909252612b8991810190614bcd565b60015b612be9573d808015612bba576040519150601f19603f3d011682016040523d82523d6000602084013e612bbf565b606091505b508051600003612be15760405162461bcd60e51b8152600401610a5b906149d8565b805181602001fd5b7fffffffff00000000000000000000000000000000000000000000000000000000167f150b7a020000000000000000000000000000000000000000000000000000000014905061201c565b506001949350505050565b6060612c4a82611f03565b6000612c6160408051602081019091526000815290565b90506000815111612c815760405180602001604052806000815250612348565b80612c8b8461303e565b604051602001612c9c9291906149e8565b6040516020818303038152906040529392505050565b612cbb816126eb565b6040516001600160a01b038216907fbc7cd75a20ee27fd9adebab32041f755214dbc6bffa90cc0225b39da2e5c2d3b90600090a250565b60606001600160a01b0383163b612d1b5760405162461bcd60e51b8152600401610a5b90614c46565b600080846001600160a01b031684604051612d369190614c56565b600060405180830381855af49150503d8060008114612d71576040519150601f19603f3d011682016040523d82523d6000602084013e612d76565b606091505b5091509150611a2682826040518060600160405280602781526020016152d9602791396130de565b6000612da9826117fe565b9050612db98160008460016126de565b612dc2826117fe565b600083815260696020908152604080832080546001600160a01b03199081169091556001600160a01b0385168085526068845282852080546000190190558785526067909352818420805490911690555192935084927fddf252ad1be2c89b69c2b068fc378daa952ba7f163c4a11628f55a4df523b3ef908390a45050565b6000808251604103612e775760208301516040840151606085015160001a612e6b878285856130f7565b94509450505050612e7f565b506000905060025b9250929050565b6000816004811115612e9a57612e9a614c60565b03612ea25750565b6001816004811115612eb657612eb6614c60565b03612ed35760405162461bcd60e51b8152600401610a5b90614ca8565b6002816004811115612ee757612ee7614c60565b03612f045760405162461bcd60e51b8152600401610a5b90614cea565b6003816004811115612f1857612f18614c60565b03610ccf5760405162461bcd60e51b8152600401610a5b90614d52565b6001600160a01b038216612f5b5760405162461bcd60e51b8152600401610a5b90614d92565b6000818152606760205260409020546001600160a01b031615612f905760405162461bcd60e51b8152600401610a5b90614dd4565b612f9e6000838360016126de565b6000818152606760205260409020546001600160a01b031615612fd35760405162461bcd60e51b8152600401610a5b90614dd4565b6001600160a01b038216600081815260686020908152604080832080546001019055848352606790915280822080546001600160a01b0319168417905551839291907fddf252ad1be2c89b69c2b068fc378daa952ba7f163c4a11628f55a4df523b3ef908290a45050565b6060600061304b836131ae565b600101905060008167ffffffffffffffff81111561306b5761306b6135fb565b6040519080825280601f01601f191660200182016040528015613095576020820181803683370190505b5090508181016020015b600019017f3031323334353637383961626364656600000000000000000000000000000000600a86061a8153600a850494508461309f57509392505050565b606083156130ed575081612348565b6123488383613290565b6000807f7fffffffffffffffffffffffffffffff5d576e7357a4501ddfe92f46681b20a083111561312e57506000905060036131a5565b6000600187878787604051600081526020016040526040516131539493929190614ded565b6020604051602081039080840390855afa158015613175573d6000803e3d6000fd5b5050604051601f1901519150506001600160a01b03811661319e576000600192509250506131a5565b9150600090505b94509492505050565b6000807a184f03e93ff9f4daa797ed6e38ed64bf6a1f01000000000000000083106131f7577a184f03e93ff9f4daa797ed6e38ed64bf6a1f010000000000000000830492506040015b6d04ee2d6d415b85acef81000000008310613223576d04ee2d6d415b85acef8100000000830492506020015b662386f26fc10000831061324157662386f26fc10000830492506010015b6305f5e1008310613259576305f5e100830492506008015b612710831061326d57612710830492506004015b6064831061327f576064830492506002015b600a83106109335760010192915050565b8151156132a05781518083602001fd5b8060405162461bcd60e51b8152600401610a5b9190613514565b8280546132c690613b6c565b90600052602060002090601f0160209004810192826132e8576000855561332e565b82601f106133015782800160ff1982351617855561332e565b8280016001018555821561332e579182015b8281111561332e578235825591602001919060010190613313565b5061333a9291506133e8565b5090565b82805461334a90613b6c565b90600052602060002090601f01602090048101928261336c576000855561332e565b82601f1061338557805160ff191683800117855561332e565b8280016001018555821561332e579182015b8281111561332e578251825591602001919060010190613397565b5080546133be90613b6c565b6000825580601f106133ce575050565b601f016020900490600052602060002090810190610ccf91905b5b8082111561333a57600081556001016133e9565b7fffffffff0000000000000000000000000000000000000000000000000000000081165b8114610ccf57600080fd5b8035610933816133fd565b60006020828403121561344c5761344c600080fd5b600061201c848461342c565b8015155b82525050565b602081016109338284613458565b60006001600160a01b038216610933565b61342181613470565b803561093381613481565b6000602082840312156134aa576134aa600080fd5b600061201c848461348a565b60005b838110156134d15781810151838201526020016134b9565b83811115611cb85750506000910152565b60006134ec825190565b8084526020840193506135038185602086016134b6565b601f01601f19169290920192915050565b6020808252810161234881846134e2565b80613421565b803561093381613525565b60006020828403121561354b5761354b600080fd5b600061201c848461352b565b61345c81613470565b602081016109338284613557565b6000806040838503121561358457613584600080fd5b6000613590858561348a565b92505060206135a18582860161352b565b9150509250929050565b6000806000606084860312156135c3576135c3600080fd5b60006135cf868661348a565b93505060206135e08682870161348a565b92505060406135f18682870161352b565b9150509250925092565b634e487b7160e01b600052604160045260246000fd5b601f19601f830116810181811067ffffffffffffffff82111715613637576136376135fb565b6040525050565b600061364960405190565b90506136558282613611565b919050565b600067ffffffffffffffff821115613674576136746135fb565b601f19601f83011660200192915050565b82818337506000910152565b60006136a461369f8461365a565b61363e565b9050828152602081018484840111156136bf576136bf600080fd5b612826848285613685565b600082601f8301126136de576136de600080fd5b813561201c848260208601613691565b60006020828403121561370357613703600080fd5b813567ffffffffffffffff81111561371d5761371d600080fd5b61201c848285016136ca565b60008083601f84011261373e5761373e600080fd5b50813567ffffffffffffffff81111561375957613759600080fd5b602083019150836001820283011115612e7f57612e7f600080fd5b60008060008060006060868803121561378f5761378f600080fd5b853567ffffffffffffffff8111156137a9576137a9600080fd5b6137b5888289016136ca565b955050602086013567ffffffffffffffff8111156137d5576137d5600080fd5b6137e188828901613729565b9450945050604086013567ffffffffffffffff81111561380357613803600080fd5b61380f88828901613729565b92509250509295509295909350565b6000806040838503121561383457613834600080fd5b6000613840858561348a565b925050602083013567ffffffffffffffff81111561386057613860600080fd5b6135a1858286016136ca565b8061345c565b60208101610933828461386c565b6000806000806040858703121561389957613899600080fd5b843567ffffffffffffffff8111156138b3576138b3600080fd5b6138bf87828801613729565b9450945050602085013567ffffffffffffffff8111156138e1576138e1600080fd5b6138ed87828801613729565b95989497509550505050565b6000806020838503121561390f5761390f600080fd5b823567ffffffffffffffff81111561392957613929600080fd5b61393585828601613729565b92509250509250929050565b801515613421565b803561093381613941565b6000806040838503121561396a5761396a600080fd5b6000613976858561348a565b92505060206135a185828601613949565b60008060006060848603121561399f5761399f600080fd5b833567ffffffffffffffff8111156139b9576139b9600080fd5b6139c5868287016136ca565b935050602084013567ffffffffffffffff8111156139e5576139e5600080fd5b6139f1868287016136ca565b925050604084013567ffffffffffffffff811115613a1157613a11600080fd5b6135f1868287016136ca565b60008060008060808587031215613a3657613a36600080fd5b6000613a42878761348a565b9450506020613a538782880161348a565b9350506040613a648782880161352b565b925050606085013567ffffffffffffffff811115613a8457613a84600080fd5b613a90878288016136ca565b91505092959194509250565b60008060408385031215613ab257613ab2600080fd5b6000613abe858561348a565b92505060206135a18582860161348a565b600061234883836134e2565b60200190565b6000613aeb825190565b80845260208401935083602082028501613b058560200190565b60005b84811015613b395783830388528151613b218482613acf565b93505060208201602098909801979150600101613b08565b50909695505050505050565b602080825281016123488184613ae1565b634e487b7160e01b600052602260045260246000fd5b600281046001821680613b8057607f821691505b602082108103611e6457611e64613b56565b60218152602081017f4552433732313a20617070726f76616c20746f2063757272656e74206f776e6581527f7200000000000000000000000000000000000000000000000000000000000000602082015290505b60400190565b6020808252810161093381613b92565b603d8152602081017f4552433732313a20617070726f76652063616c6c6572206973206e6f7420746f81527f6b656e206f776e6572206f7220617070726f76656420666f7220616c6c00000060208201529050613be6565b6020808252810161093381613bfc565b602d8152602081017f4552433732313a2063616c6c6572206973206e6f7420746f6b656e206f776e6581527f72206f7220617070726f7665640000000000000000000000000000000000000060208201529050613be6565b6020808252810161093381613c64565b602c8152602081017f46756e6374696f6e206d7573742062652063616c6c6564207468726f7567682081527f64656c656761746563616c6c000000000000000000000000000000000000000060208201529050613be6565b6020808252810161093381613ccc565b602c8152602081017f46756e6374696f6e206d7573742062652063616c6c6564207468726f7567682081527f6163746976652070726f7879000000000000000000000000000000000000000060208201529050613be6565b6020808252810161093381613d34565b60188152602081017f4661696c656420746f207769746864726177204d61746963000000000000000081529050613adb565b6020808252810161093381613d9c565b613de9828483613685565b500190565b7f496e76616c69644e616d653a20000000000000000000000000000000000000008152600d01612348818385613dde565b612348818385613dde565b60118152602081017f416c72656164795265676973746572656400000000000000000000000000000081529050613adb565b6020808252810161093381613e2a565b600c8152602081017f496e76616c696420726f6c65000000000000000000000000000000000000000081529050613adb565b6020808252810161093381613e6c565b60288152602081017f41646d696e20726f6c652063616e206f6e6c792062652061737369676e65642081527f6279206f776e657200000000000000000000000000000000000000000000000060208201529050613be6565b6020808252810161093381613eae565b600c8152602081017f556e617574686f72697a6564000000000000000000000000000000000000000081529050613adb565b6020808252810161093381613f16565b60148152602081017f41646472657373206e6f7420766572696669656400000000000000000000000081529050613adb565b6020808252810161093381613f58565b602f8152602081017f417965656f6f3a20596f752063616e206f6e6c79206d696e74206f6e6520667281527f656520636f6c6c65637469626c6521000000000000000000000000000000000060208201529050613be6565b6020808252810161093381613f9a565b60158152602081017f4e6f7420656e6f756768204d617469632070616964000000000000000000000081529050613adb565b6020808252810161093381614002565b6000815461405181613b6c565b6001821680156140685760018114614079576140a9565b60ff198316865281860193506140a9565b60008581526020902060005b838110156140a157815488820152600190910190602001614085565b505081860193505b50505092915050565b6140bd818486613dde565b601760f91b81529050600181015b905061201c8183614044565b60006140e1825190565b6140ef8185602086016134b6565b9290920192915050565b6141038185614044565b90506140cb81846140d7565b7f646174613a6170706c69636174696f6e2f6a736f6e3b6261736536342c0000008152601d0161093381836140d7565b60388152602081017f555550535570677261646561626c653a206d757374206e6f742062652063616c81527f6c6564207468726f7567682064656c656761746563616c6c000000000000000060208201529050613be6565b602080825281016109338161413f565b60188152602081017f4552433732313a20696e76616c696420746f6b656e204944000000000000000081529050613adb565b60208082528101610933816141a7565b60298152602081017f4552433732313a2061646472657373207a65726f206973206e6f74206120766181527f6c6964206f776e6572000000000000000000000000000000000000000000000060208201529050613be6565b60208082528101610933816141e9565b602e8152602081017f496e697469616c697a61626c653a20636f6e747261637420697320616c72656181527f647920696e697469616c697a656400000000000000000000000000000000000060208201529050613be6565b6020808252810161093381614251565b600060ff8216610933565b61345c816142b9565b6020810161093382846142c4565b60268152602081017f4f776e61626c653a206e6577206f776e657220697320746865207a65726f206181527f646472657373000000000000000000000000000000000000000000000000000060208201529050613be6565b60208082528101610933816142db565b6109338183614044565b634e487b7160e01b600052603260045260246000fd5b634e487b7160e01b600052601160045260246000fd5b6000600019820361438c5761438c614363565b5060010190565b60208082527f4f776e61626c653a2063616c6c6572206973206e6f7420746865206f776e65729101908152613adb565b6020808252810161093381614393565b60258152602081017f4552433732313a207472616e736665722066726f6d20696e636f72726563742081527f6f776e657200000000000000000000000000000000000000000000000000000060208201529050613be6565b60208082528101610933816143d3565b60248152602081017f4552433732313a207472616e7366657220746f20746865207a65726f2061646481527f726573730000000000000000000000000000000000000000000000000000000060208201529050613be6565b602080825281016109338161443b565b805161093381613525565b6000602082840312156144c3576144c3600080fd5b600061201c84846144a3565b602e8152602081017f45524331393637557067726164653a206e657720696d706c656d656e7461746981527f6f6e206973206e6f74205555505300000000000000000000000000000000000060208201529050613be6565b60208082528101610933816144cf565b60298152602081017f45524331393637557067726164653a20756e737570706f727465642070726f7881527f6961626c6555554944000000000000000000000000000000000000000000000060208201529050613be6565b6020808252810161093381614537565b60006109338260601b90565b60006109338261459f565b61345c6145c282613470565b6145ab565b6145d181836145b6565b601401919050565b7f227d00000000000000000000000000000000000000000000000000000000000081525b60020190565b7f5d7d00000000000000000000000000000000000000000000000000000000000081526145fd565b7f7b226e616d65223a2022000000000000000000000000000000000000000000008152600a0161465b81886140d7565b601760f91b815260010190506146718187614044565b7f222c226465736372697074696f6e223a2022796f7572206f6666696369616c2081527f737562706f72742068616e646c652e206469676974616c20636f6c6c6563746960208201527f626c657320666f722066616e732c2066726f6d2061727469737473207468657960408201527f206c697374656e20746f2e20756e6c6f636b206d757369632e222c22696d616760608201527f65223a2022646174613a696d6167652f7376672b786d6c3b6261736536342c006080820152609f01905061473b81866140d7565b7f222c2261747472696275746573223a205b00000000000000000000000000000081527f7b2274726169745f74797065223a202254797065222c202276616c7565223a2060118201527f2200000000000000000000000000000000000000000000000000000000000000603182015260320190506147b981856140d7565b7f227d2c000000000000000000000000000000000000000000000000000000000081527f7b2274726169745f74797065223a202268616e646c65222c202276616c75652260038201527f3a224022220000000000000000000000000000000000000000000000000000006023820152602801905061483781846140d7565b601760f91b8152600101905061484d8183614044565b9050614858816145d9565b905061486381614603565b979650505050505050565b602e8152602081017f45524337323155524953746f726167653a2055524920736574206f66206e6f6e81527f6578697374656e7420746f6b656e00000000000000000000000000000000000060208201529050613be6565b602080825281016109338161486e565b60198152602081017f4552433732313a20617070726f766520746f2063616c6c65720000000000000081529050613adb565b60208082528101610933816148d6565b602b8152602081017f496e697469616c697a61626c653a20636f6e7472616374206973206e6f74206981527f6e697469616c697a696e6700000000000000000000000000000000000000000060208201529050613be6565b6020808252810161093381614918565b60328152602081017f4552433732313a207472616e7366657220746f206e6f6e20455243373231526581527f63656976657220696d706c656d656e746572000000000000000000000000000060208201529050613be6565b6020808252810161093381614980565b6149f281846140d7565b905061234881836140d7565b602d8152602081017f455243313936373a206e657720696d706c656d656e746174696f6e206973206e81527f6f74206120636f6e74726163740000000000000000000000000000000000000060208201529050613be6565b60208082528101610933816149fe565b60148152602081017f5061757361626c653a206e6f742070617573656400000000000000000000000081529050613adb565b6020808252810161093381614a66565b7f19457468657265756d205369676e6564204d6573736167653a0a3332000000008152601c01614ad8818361386c565b602001919050565b60008219821115613de957613de9614363565b634e487b7160e01b600052601260045260246000fd5b600082614b1857614b18614af3565b500490565b6000816000190483118215151615614b3757614b37614363565b500290565b60108152602081017f5061757361626c653a207061757365640000000000000000000000000000000081529050613adb565b6020808252810161093381614b3c565b60808101614b8c8287613557565b614b996020830186613557565b614ba6604083018561386c565b8181036060830152614bb881846134e2565b9695505050505050565b8051610933816133fd565b600060208284031215614be257614be2600080fd5b600061201c8484614bc2565b60268152602081017f416464726573733a2064656c65676174652063616c6c20746f206e6f6e2d636f81527f6e7472616374000000000000000000000000000000000000000000000000000060208201529050613be6565b6020808252810161093381614bee565b61093381836140d7565b634e487b7160e01b600052602160045260246000fd5b60188152602081017f45434453413a20696e76616c6964207369676e6174757265000000000000000081529050613adb565b6020808252810161093381614c76565b601f8152602081017f45434453413a20696e76616c6964207369676e6174757265206c656e6774680081529050613adb565b6020808252810161093381614cb8565b60228152602081017f45434453413a20696e76616c6964207369676e6174757265202773272076616c81527f756500000000000000000000000000000000000000000000000000000000000060208201529050613be6565b6020808252810161093381614cfa565b60208082527f4552433732313a206d696e7420746f20746865207a65726f20616464726573739101908152613adb565b6020808252810161093381614d62565b601c8152602081017f4552433732313a20746f6b656e20616c7265616479206d696e7465640000000081529050613adb565b6020808252810161093381614da2565b60ff811661345c565b60808101614dfb828761386c565b614e086020830186614de4565b614e15604083018561386c565b611a26606083018461386c56fe3c73766720786d6c6e733d22687474703a2f2f7777772e77332e6f72672f323030302f737667222077696474683d223130302522206865696768743d2231303025222076696577426f783d223020302032373020323730222066696c6c3d226e6f6e65223e3c706174682066696c6c3d2275726c282361292220643d224d302030683237307632373048307a222f3e3c646566733e3c66696c7465722069643d22622220636f6c6f722d696e746572706f6c6174696f6e2d66696c746572733d2273524742222066696c746572556e6974733d227573657253706163654f6e55736522206865696768743d22323730222077696474683d22323730223e3c666544726f70536861646f772064783d2230222064793d22312220737464446576696174696f6e3d22322220666c6f6f642d6f7061636974793d222e323235222077696474683d223230302522206865696768743d2232303025222f3e3c2f66696c7465723e3c2f646566733e3c7061746820643d224d31362e32392035392e36396131312e30362031312e30362030203020312031302e38332d382e37396831392e373263322e3134203020332e32392d312e313520332e35392d322e35362e33332d312e35372d2e34392d322e33392d322e36332d322e33394833342e3835632d392e3420302d31352e35382d342e37382d31332e32382d31352e373520322e34322d31312e35352031322e382d31352e38342032302e382d31352e38346831382e333563352e393320302031302e333620352e343620392e31352031312e323661322e36353320322e3635332030203020312d322e353920322e314834322e3231632d322e303620302d332e313120312e30372d332e333920322e3339732e333120322e343720322e333720322e34376831312e30356331312e383820302031372e343420362e312031352e34392031352e3432732d31302e352031362e32352d32312e38382031362e3235483230632d322e343120302d342e32312d322e32312d332e37312d342e35375a222066696c6c3d2223666666222f3e3c646566733e3c6c696e6561724772616469656e742069643d2261222078313d2230222079313d2230222078323d22323730222079323d2232373022206772616469656e74556e6974733d227573657253706163654f6e557365223e3c73746f702073746f702d636f6c6f723d2223303030303862222f3e3c73746f70206f66667365743d2231222073746f702d636f6c6f723d2223303034656261222073746f702d6f7061636974793d222e3939222f3e3c2f6c696e6561724772616469656e743e3c2f646566733e3c7465787420783d2232302e352220793d223233312220666f6e742d73697a653d223138222066696c6c3d2223666666222066696c7465723d2275726c282362292220666f6e742d66616d696c793d22506c7573204a616b617274612053616e732c44656a6156752053616e732c4e6f746f20436f6c6f7220456d6f6a692c4170706c6520436f6c6f7220456d6f6a692c73616e732d73657269662220666f6e742d7765696768743d22626f6c64223e4142434445464748494a4b4c4d4e4f505152535455565758595a6162636465666768696a6b6c6d6e6f707172737475767778797a303132333435363738392b2f416464726573733a206c6f772d6c6576656c2064656c65676174652063616c6c206661696c6564a26469706673582212205fddef3964b362a4a56ab9d422a17667200f317ab97321ac6f64182a22838f9164736f6c634300080e0033",
  "linkReferences": {},
  "deployedLinkReferences": {}
}