{
  "_format": "hh-sol-artifact-1",
  "contractName": "SubportDomains721",
  "sourceName": "contracts/subportDomains721.sol",
  "abi": [
    {
      "inputs": [
        {
          "internalType": "string",
          "name": "_tld",
          "type": "string"
        }
      ],
      "stateMutability": "payable",
      "type": "constructor"
    },
    {
      "anonymous": false,
      "inputs": [
        {
          "indexed": true,
          "internalType": "address",
          "name": "owner",
          "type": "address"
        },
        {
          "indexed": true,
          "internalType": "address",
          "name": "approved",
          "type": "address"
        },
        {
          "indexed": true,
          "internalType": "uint256",
          "name": "tokenId",
          "type": "uint256"
        }
      ],
      "name": "Approval",
      "type": "event"
    },
    {
      "anonymous": false,
      "inputs": [
        {
          "indexed": true,
          "internalType": "address",
          "name": "owner",
          "type": "address"
        },
        {
          "indexed": true,
          "internalType": "address",
          "name": "operator",
          "type": "address"
        },
        {
          "indexed": false,
          "internalType": "bool",
          "name": "approved",
          "type": "bool"
        }
      ],
      "name": "ApprovalForAll",
      "type": "event"
    },
    {
      "anonymous": false,
      "inputs": [
        {
          "indexed": true,
          "internalType": "address",
          "name": "previousOwner",
          "type": "address"
        },
        {
          "indexed": true,
          "internalType": "address",
          "name": "newOwner",
          "type": "address"
        }
      ],
      "name": "OwnershipTransferred",
      "type": "event"
    },
    {
      "anonymous": false,
      "inputs": [
        {
          "indexed": true,
          "internalType": "address",
          "name": "a",
          "type": "address"
        }
      ],
      "name": "Paused",
      "type": "event"
    },
    {
      "anonymous": false,
      "inputs": [
        {
          "indexed": true,
          "internalType": "address",
          "name": "from",
          "type": "address"
        },
        {
          "indexed": true,
          "internalType": "address",
          "name": "to",
          "type": "address"
        },
        {
          "indexed": true,
          "internalType": "uint256",
          "name": "tokenId",
          "type": "uint256"
        }
      ],
      "name": "Transfer",
      "type": "event"
    },
    {
      "anonymous": false,
      "inputs": [
        {
          "indexed": true,
          "internalType": "address",
          "name": "a",
          "type": "address"
        }
      ],
      "name": "Unpaused",
      "type": "event"
    },
    {
      "inputs": [
        {
          "internalType": "address",
          "name": "a",
          "type": "address"
        }
      ],
      "name": "addToPort",
      "outputs": [],
      "stateMutability": "nonpayable",
      "type": "function"
    },
    {
      "inputs": [
        {
          "internalType": "address",
          "name": "to",
          "type": "address"
        },
        {
          "internalType": "uint256",
          "name": "tokenId",
          "type": "uint256"
        }
      ],
      "name": "approve",
      "outputs": [],
      "stateMutability": "nonpayable",
      "type": "function"
    },
    {
      "inputs": [
        {
          "internalType": "address",
          "name": "owner",
          "type": "address"
        }
      ],
      "name": "balanceOf",
      "outputs": [
        {
          "internalType": "uint256",
          "name": "",
          "type": "uint256"
        }
      ],
      "stateMutability": "view",
      "type": "function"
    },
    {
      "inputs": [
        {
          "internalType": "uint256",
          "name": "tokenId",
          "type": "uint256"
        }
      ],
      "name": "burn",
      "outputs": [],
      "stateMutability": "nonpayable",
      "type": "function"
    },
    {
      "inputs": [
        {
          "internalType": "string",
          "name": "",
          "type": "string"
        }
      ],
      "name": "domains",
      "outputs": [
        {
          "internalType": "address",
          "name": "",
          "type": "address"
        }
      ],
      "stateMutability": "view",
      "type": "function"
    },
    {
      "inputs": [
        {
          "internalType": "string",
          "name": "name",
          "type": "string"
        }
      ],
      "name": "getAddress",
      "outputs": [
        {
          "internalType": "address",
          "name": "",
          "type": "address"
        }
      ],
      "stateMutability": "view",
      "type": "function"
    },
    {
      "inputs": [],
      "name": "getAllNames",
      "outputs": [
        {
          "internalType": "string[]",
          "name": "",
          "type": "string[]"
        }
      ],
      "stateMutability": "view",
      "type": "function"
    },
    {
      "inputs": [
        {
          "internalType": "uint256",
          "name": "tokenId",
          "type": "uint256"
        }
      ],
      "name": "getApproved",
      "outputs": [
        {
          "internalType": "address",
          "name": "",
          "type": "address"
        }
      ],
      "stateMutability": "view",
      "type": "function"
    },
    {
      "inputs": [
        {
          "internalType": "string",
          "name": "name",
          "type": "string"
        }
      ],
      "name": "getRole",
      "outputs": [
        {
          "internalType": "string",
          "name": "",
          "type": "string"
        }
      ],
      "stateMutability": "view",
      "type": "function"
    },
    {
      "inputs": [
        {
          "internalType": "address",
          "name": "owner",
          "type": "address"
        },
        {
          "internalType": "address",
          "name": "operator",
          "type": "address"
        }
      ],
      "name": "isApprovedForAll",
      "outputs": [
        {
          "internalType": "bool",
          "name": "",
          "type": "bool"
        }
      ],
      "stateMutability": "view",
      "type": "function"
    },
    {
      "inputs": [],
      "name": "isBeta",
      "outputs": [
        {
          "internalType": "bool",
          "name": "",
          "type": "bool"
        }
      ],
      "stateMutability": "view",
      "type": "function"
    },
    {
      "inputs": [
        {
          "internalType": "address",
          "name": "a",
          "type": "address"
        }
      ],
      "name": "isInSubport",
      "outputs": [
        {
          "internalType": "bool",
          "name": "",
          "type": "bool"
        }
      ],
      "stateMutability": "view",
      "type": "function"
    },
    {
      "inputs": [],
      "name": "name",
      "outputs": [
        {
          "internalType": "string",
          "name": "",
          "type": "string"
        }
      ],
      "stateMutability": "view",
      "type": "function"
    },
    {
      "inputs": [
        {
          "internalType": "uint256",
          "name": "",
          "type": "uint256"
        }
      ],
      "name": "names",
      "outputs": [
        {
          "internalType": "string",
          "name": "",
          "type": "string"
        }
      ],
      "stateMutability": "view",
      "type": "function"
    },
    {
      "inputs": [],
      "name": "openToPublic",
      "outputs": [
        {
          "internalType": "bool",
          "name": "",
          "type": "bool"
        }
      ],
      "stateMutability": "view",
      "type": "function"
    },
    {
      "inputs": [],
      "name": "owner",
      "outputs": [
        {
          "internalType": "address",
          "name": "",
          "type": "address"
        }
      ],
      "stateMutability": "view",
      "type": "function"
    },
    {
      "inputs": [
        {
          "internalType": "uint256",
          "name": "tokenId",
          "type": "uint256"
        }
      ],
      "name": "ownerOf",
      "outputs": [
        {
          "internalType": "address",
          "name": "",
          "type": "address"
        }
      ],
      "stateMutability": "view",
      "type": "function"
    },
    {
      "inputs": [],
      "name": "paused",
      "outputs": [
        {
          "internalType": "bool",
          "name": "",
          "type": "bool"
        }
      ],
      "stateMutability": "view",
      "type": "function"
    },
    {
      "inputs": [
        {
          "internalType": "string",
          "name": "name",
          "type": "string"
        }
      ],
      "name": "price",
      "outputs": [
        {
          "internalType": "uint256",
          "name": "",
          "type": "uint256"
        }
      ],
      "stateMutability": "view",
      "type": "function"
    },
    {
      "inputs": [
        {
          "internalType": "string",
          "name": "",
          "type": "string"
        }
      ],
      "name": "records",
      "outputs": [
        {
          "internalType": "string",
          "name": "",
          "type": "string"
        }
      ],
      "stateMutability": "view",
      "type": "function"
    },
    {
      "inputs": [
        {
          "internalType": "string",
          "name": "name",
          "type": "string"
        },
        {
          "internalType": "string",
          "name": "role",
          "type": "string"
        }
      ],
      "name": "register",
      "outputs": [],
      "stateMutability": "payable",
      "type": "function"
    },
    {
      "inputs": [
        {
          "internalType": "address",
          "name": "a",
          "type": "address"
        }
      ],
      "name": "removeFromPort",
      "outputs": [],
      "stateMutability": "nonpayable",
      "type": "function"
    },
    {
      "inputs": [],
      "name": "renounceOwnership",
      "outputs": [],
      "stateMutability": "nonpayable",
      "type": "function"
    },
    {
      "inputs": [
        {
          "internalType": "string",
          "name": "name",
          "type": "string"
        },
        {
          "internalType": "string",
          "name": "role",
          "type": "string"
        }
      ],
      "name": "reserve",
      "outputs": [],
      "stateMutability": "payable",
      "type": "function"
    },
    {
      "inputs": [
        {
          "internalType": "string",
          "name": "",
          "type": "string"
        }
      ],
      "name": "roles",
      "outputs": [
        {
          "internalType": "string",
          "name": "",
          "type": "string"
        }
      ],
      "stateMutability": "view",
      "type": "function"
    },
    {
      "inputs": [
        {
          "internalType": "address",
          "name": "from",
          "type": "address"
        },
        {
          "internalType": "address",
          "name": "to",
          "type": "address"
        },
        {
          "internalType": "uint256",
          "name": "tokenId",
          "type": "uint256"
        }
      ],
      "name": "safeTransferFrom",
      "outputs": [],
      "stateMutability": "nonpayable",
      "type": "function"
    },
    {
      "inputs": [
        {
          "internalType": "address",
          "name": "from",
          "type": "address"
        },
        {
          "internalType": "address",
          "name": "to",
          "type": "address"
        },
        {
          "internalType": "uint256",
          "name": "tokenId",
          "type": "uint256"
        },
        {
          "internalType": "bytes",
          "name": "data",
          "type": "bytes"
        }
      ],
      "name": "safeTransferFrom",
      "outputs": [],
      "stateMutability": "nonpayable",
      "type": "function"
    },
    {
      "inputs": [
        {
          "internalType": "address",
          "name": "operator",
          "type": "address"
        },
        {
          "internalType": "bool",
          "name": "approved",
          "type": "bool"
        }
      ],
      "name": "setApprovalForAll",
      "outputs": [],
      "stateMutability": "nonpayable",
      "type": "function"
    },
    {
      "inputs": [
        {
          "internalType": "string",
          "name": "name",
          "type": "string"
        },
        {
          "internalType": "string",
          "name": "role",
          "type": "string"
        }
      ],
      "name": "setRecord",
      "outputs": [],
      "stateMutability": "nonpayable",
      "type": "function"
    },
    {
      "inputs": [
        {
          "internalType": "bytes4",
          "name": "interfaceId",
          "type": "bytes4"
        }
      ],
      "name": "supportsInterface",
      "outputs": [
        {
          "internalType": "bool",
          "name": "",
          "type": "bool"
        }
      ],
      "stateMutability": "view",
      "type": "function"
    },
    {
      "inputs": [],
      "name": "symbol",
      "outputs": [
        {
          "internalType": "string",
          "name": "",
          "type": "string"
        }
      ],
      "stateMutability": "view",
      "type": "function"
    },
    {
      "inputs": [],
      "name": "tld",
      "outputs": [
        {
          "internalType": "string",
          "name": "",
          "type": "string"
        }
      ],
      "stateMutability": "view",
      "type": "function"
    },
    {
      "inputs": [],
      "name": "togglePhase",
      "outputs": [],
      "stateMutability": "nonpayable",
      "type": "function"
    },
    {
      "inputs": [],
      "name": "toggleSale",
      "outputs": [],
      "stateMutability": "nonpayable",
      "type": "function"
    },
    {
      "inputs": [],
      "name": "toggleSaleActive",
      "outputs": [],
      "stateMutability": "nonpayable",
      "type": "function"
    },
    {
      "inputs": [
        {
          "internalType": "uint256",
          "name": "tokenId",
          "type": "uint256"
        }
      ],
      "name": "tokenURI",
      "outputs": [
        {
          "internalType": "string",
          "name": "",
          "type": "string"
        }
      ],
      "stateMutability": "view",
      "type": "function"
    },
    {
      "inputs": [
        {
          "internalType": "address",
          "name": "from",
          "type": "address"
        },
        {
          "internalType": "address",
          "name": "to",
          "type": "address"
        },
        {
          "internalType": "uint256",
          "name": "tokenId",
          "type": "uint256"
        }
      ],
      "name": "transferFrom",
      "outputs": [],
      "stateMutability": "nonpayable",
      "type": "function"
    },
    {
      "inputs": [
        {
          "internalType": "address",
          "name": "newOwner",
          "type": "address"
        }
      ],
      "name": "transferOwnership",
      "outputs": [],
      "stateMutability": "nonpayable",
      "type": "function"
    },
    {
      "inputs": [
        {
          "internalType": "string",
          "name": "name",
          "type": "string"
        }
      ],
      "name": "valid",
      "outputs": [
        {
          "internalType": "bool",
          "name": "",
          "type": "bool"
        }
      ],
      "stateMutability": "pure",
      "type": "function"
    },
    {
      "inputs": [],
      "name": "withdraw",
      "outputs": [],
      "stateMutability": "nonpayable",
      "type": "function"
    }
  ],
  "bytecode": "0x6080604052604051806104a001604052806104768152602001620063af6104769139600e908051906020019062000038929190620003ef565b506040518060400160405280600d81526020017f3c2f746578743e3c2f7376673e00000000000000000000000000000000000000815250600f908051906020019062000086929190620003ef565b5060405162006825380380620068258339818101604052810190620000ac91906200063c565b6040518060400160405280600781526020017f737562706f7274000000000000000000000000000000000000000000000000008152506040518060400160405280600581526020017f5342505254000000000000000000000000000000000000000000000000000000815250816000908051906020019062000130929190620003ef565b50806001908051906020019062000149929190620003ef565b5050506200016c620001606200032160201b60201c565b6200032960201b60201c565b60016008600073690a0e1eaf12c8e4734c81cf49d478a2c6473a7373ffffffffffffffffffffffffffffffffffffffff1673ffffffffffffffffffffffffffffffffffffffff16815260200190815260200160002060006101000a81548160ff02191690831515021790555060016008600073567b5e79ce0d465a0ff1e1eeefe65d180b4c5d4173ffffffffffffffffffffffffffffffffffffffff1673ffffffffffffffffffffffffffffffffffffffff16815260200190815260200160002060006101000a81548160ff02191690831515021790555060016008600073b40c70c616c35f1dfa088c3b56d61bdbabff533e73ffffffffffffffffffffffffffffffffffffffff1673ffffffffffffffffffffffffffffffffffffffff16815260200190815260200160002060006101000a81548160ff0219169083151502179055506000600960006101000a81548160ff02191690831515021790555080600c9080519060200190620002e3929190620003ef565b506001600d60016101000a81548160ff0219169083151502179055506001600d60006101000a81548160ff02191690831515021790555050620006f2565b600033905090565b6000600760009054906101000a900473ffffffffffffffffffffffffffffffffffffffff16905081600760006101000a81548173ffffffffffffffffffffffffffffffffffffffff021916908373ffffffffffffffffffffffffffffffffffffffff1602179055508173ffffffffffffffffffffffffffffffffffffffff168173ffffffffffffffffffffffffffffffffffffffff167f8be0079c531659141344cd1fd0a4f28419497f9722a3daafe3b4186f6b6457e060405160405180910390a35050565b828054620003fd90620006bc565b90600052602060002090601f0160209004810192826200042157600085556200046d565b82601f106200043c57805160ff19168380011785556200046d565b828001600101855582156200046d579182015b828111156200046c5782518255916020019190600101906200044f565b5b5090506200047c919062000480565b5090565b5b808211156200049b57600081600090555060010162000481565b5090565b6000604051905090565b600080fd5b600080fd5b600080fd5b600080fd5b6000601f19601f8301169050919050565b7f4e487b7100000000000000000000000000000000000000000000000000000000600052604160045260246000fd5b6200050882620004bd565b810181811067ffffffffffffffff821117156200052a5762000529620004ce565b5b80604052505050565b60006200053f6200049f565b90506200054d8282620004fd565b919050565b600067ffffffffffffffff82111562000570576200056f620004ce565b5b6200057b82620004bd565b9050602081019050919050565b60005b83811015620005a85780820151818401526020810190506200058b565b83811115620005b8576000848401525b50505050565b6000620005d5620005cf8462000552565b62000533565b905082815260208101848484011115620005f457620005f3620004b8565b5b6200060184828562000588565b509392505050565b600082601f830112620006215762000620620004b3565b5b815162000633848260208601620005be565b91505092915050565b600060208284031215620006555762000654620004a9565b5b600082015167ffffffffffffffff811115620006765762000675620004ae565b5b620006848482850162000609565b91505092915050565b7f4e487b7100000000000000000000000000000000000000000000000000000000600052602260045260246000fd5b60006002820490506001821680620006d557607f821691505b60208210811415620006ec57620006eb6200068d565b5b50919050565b615cad80620007026000396000f3fe60806040526004361061023b5760003560e01c80636ca1d96a1161012e578063b88d4fde116100ab578063df8b6b951161006f578063df8b6b9514610879578063e985e9c5146108a2578063f2fde38b146108df578063fb825e5f14610908578063fe2c6198146109335761023b565b8063b88d4fde14610770578063bb56873f14610799578063bf40fac1146107d6578063c1880a9814610813578063c87b56dd1461083c5761023b565b80638da5cb5b116100f25780638da5cb5b1461067757806395d89b41146106a25780639791c097146106cd578063a22cb4651461070a578063b7adce64146107335761023b565b80636ca1d96a146105a45780636e9067fb146105cf57806370a082311461060c578063715018a6146106495780637d8966e4146106605761023b565b80633100a535116101bc5780634622ab03116101805780634622ab03146104a6578063541e771d146104e357806358229591146105205780635c975abb1461053c5780636352211e146105675761023b565b80633100a5351461040a5780633ccfd60b146104215780633ffbd47f1461043857806342842e0e1461045457806342966c681461047d5761023b565b80631831ccf2116102035780631831ccf2146103255780631ae4eca71461035057806323b872dd1461037957806326449235146103a25780632d551432146103df5761023b565b806301ffc9a714610240578063058506e01461027d57806306fdde0314610294578063081812fc146102bf578063095ea7b3146102fc575b600080fd5b34801561024c57600080fd5b5061026760048036038101906102629190613e51565b610970565b6040516102749190613e99565b60405180910390f35b34801561028957600080fd5b50610292610a52565b005b3480156102a057600080fd5b506102a9610acd565b6040516102b69190613f4d565b60405180910390f35b3480156102cb57600080fd5b506102e660048036038101906102e19190613fa5565b610b5f565b6040516102f39190614013565b60405180910390f35b34801561030857600080fd5b50610323600480360381019061031e919061405a565b610ba5565b005b34801561033157600080fd5b5061033a610cbd565b6040516103479190613e99565b60405180910390f35b34801561035c57600080fd5b506103776004803603810190610372919061409a565b610cd0565b005b34801561038557600080fd5b506103a0600480360381019061039b91906140c7565b610d7c565b005b3480156103ae57600080fd5b506103c960048036038101906103c4919061424f565b610ddc565b6040516103d69190614013565b60405180910390f35b3480156103eb57600080fd5b506103f4610e25565b6040516104019190613f4d565b60405180910390f35b34801561041657600080fd5b5061041f610eb3565b005b34801561042d57600080fd5b50610436610fdd565b005b610452600480360381019061044d91906142f8565b6110e1565b005b34801561046057600080fd5b5061047b600480360381019061047691906140c7565b6116d5565b005b34801561048957600080fd5b506104a4600480360381019061049f9190613fa5565b6116f5565b005b3480156104b257600080fd5b506104cd60048036038101906104c89190613fa5565b611798565b6040516104da9190613f4d565b60405180910390f35b3480156104ef57600080fd5b5061050a6004803603810190610505919061424f565b611838565b6040516105179190613f4d565b60405180910390f35b61053a600480360381019061053591906142f8565b6118ee565b005b34801561054857600080fd5b50610551611e45565b60405161055e9190613e99565b60405180910390f35b34801561057357600080fd5b5061058e60048036038101906105899190613fa5565b611e5c565b60405161059b9190614013565b60405180910390f35b3480156105b057600080fd5b506105b9611ee3565b6040516105c69190613e99565b60405180910390f35b3480156105db57600080fd5b506105f660048036038101906105f19190614379565b611ef6565b6040516106039190613f4d565b60405180910390f35b34801561061857600080fd5b50610633600480360381019061062e919061409a565b611fa9565b60405161064091906143d5565b60405180910390f35b34801561065557600080fd5b5061065e612061565b005b34801561066c57600080fd5b50610675612075565b005b34801561068357600080fd5b5061068c6120f0565b6040516106999190614013565b60405180910390f35b3480156106ae57600080fd5b506106b761211a565b6040516106c49190613f4d565b60405180910390f35b3480156106d957600080fd5b506106f460048036038101906106ef9190614379565b6121ac565b6040516107019190613e99565b60405180910390f35b34801561071657600080fd5b50610731600480360381019061072c919061441c565b612218565b005b34801561073f57600080fd5b5061075a6004803603810190610755919061409a565b61222e565b6040516107679190613e99565b60405180910390f35b34801561077c57600080fd5b50610797600480360381019061079291906144fd565b612284565b005b3480156107a557600080fd5b506107c060048036038101906107bb919061424f565b6122e6565b6040516107cd9190613f4d565b60405180910390f35b3480156107e257600080fd5b506107fd60048036038101906107f89190614379565b61239c565b60405161080a9190614013565b60405180910390f35b34801561081f57600080fd5b5061083a600480360381019061083591906142f8565b6123e7565b005b34801561084857600080fd5b50610863600480360381019061085e9190613fa5565b612495565b6040516108709190613f4d565b60405180910390f35b34801561088557600080fd5b506108a0600480360381019061089b919061409a565b6125a8565b005b3480156108ae57600080fd5b506108c960048036038101906108c49190614580565b612653565b6040516108d69190613e99565b60405180910390f35b3480156108eb57600080fd5b506109066004803603810190610901919061409a565b6126e7565b005b34801561091457600080fd5b5061091d61276b565b60405161092a91906146cc565b60405180910390f35b34801561093f57600080fd5b5061095a60048036038101906109559190614379565b612847565b60405161096791906143d5565b60405180910390f35b60007f80ac58cd000000000000000000000000000000000000000000000000000000007bffffffffffffffffffffffffffffffffffffffffffffffffffffffff1916827bffffffffffffffffffffffffffffffffffffffffffffffffffffffff19161480610a3b57507f5b5e139f000000000000000000000000000000000000000000000000000000007bffffffffffffffffffffffffffffffffffffffffffffffffffffffff1916827bffffffffffffffffffffffffffffffffffffffffffffffffffffffff1916145b80610a4b5750610a4a826128c4565b5b9050919050565b610a62610a5d61292e565b61222e565b610aa1576040517f08c379a0000000000000000000000000000000000000000000000000000000008152600401610a9890614760565b60405180910390fd5b600d60019054906101000a900460ff1615600d60016101000a81548160ff021916908315150217905550565b606060008054610adc906147af565b80601f0160208091040260200160405190810160405280929190818152602001828054610b08906147af565b8015610b555780601f10610b2a57610100808354040283529160200191610b55565b820191906000526020600020905b815481529060010190602001808311610b3857829003601f168201915b5050505050905090565b6000610b6a82612936565b6004600083815260200190815260200160002060009054906101000a900473ffffffffffffffffffffffffffffffffffffffff169050919050565b6000610bb082611e5c565b90508073ffffffffffffffffffffffffffffffffffffffff168373ffffffffffffffffffffffffffffffffffffffff161415610c21576040517f08c379a0000000000000000000000000000000000000000000000000000000008152600401610c1890614853565b60405180910390fd5b8073ffffffffffffffffffffffffffffffffffffffff16610c4061292e565b73ffffffffffffffffffffffffffffffffffffffff161480610c6f5750610c6e81610c6961292e565b612653565b5b610cae576040517f08c379a0000000000000000000000000000000000000000000000000000000008152600401610ca5906148e5565b60405180910390fd5b610cb88383612981565b505050565b600d60009054906101000a900460ff1681565b610cd8612a3a565b610ce18161222e565b15610d21576040517f08c379a0000000000000000000000000000000000000000000000000000000008152600401610d1890614977565b60405180910390fd5b6001600860008373ffffffffffffffffffffffffffffffffffffffff1673ffffffffffffffffffffffffffffffffffffffff16815260200190815260200160002060006101000a81548160ff02191690831515021790555050565b610d8d610d8761292e565b82612ab8565b610dcc576040517f08c379a0000000000000000000000000000000000000000000000000000000008152600401610dc390614a09565b60405180910390fd5b610dd7838383612b4d565b505050565b6010818051602081018201805184825260208301602085012081835280955050505050506000915054906101000a900473ffffffffffffffffffffffffffffffffffffffff1681565b600c8054610e32906147af565b80601f0160208091040260200160405190810160405280929190818152602001828054610e5e906147af565b8015610eab5780601f10610e8057610100808354040283529160200191610eab565b820191906000526020600020905b815481529060010190602001808311610e8e57829003601f168201915b505050505081565b610ec3610ebe61292e565b61222e565b610f02576040517f08c379a0000000000000000000000000000000000000000000000000000000008152600401610ef990614760565b60405180910390fd5b600960009054906101000a900460ff1615600960006101000a81548160ff021916908315150217905550600960009054906101000a900460ff1615610f9057610f4961292e565b73ffffffffffffffffffffffffffffffffffffffff167f62e78cea01bee320cd4e420270b5ea74000d11b0c9f74754ebdbfc544b05a25860405160405180910390a2610fdb565b610f9861292e565b73ffffffffffffffffffffffffffffffffffffffff167f5db9ee0a495bf2e6ff9c91a7834c1ba4fdd244a5e8aa4e537bd38aeae4b073aa60405160405180910390a25b565b610fed610fe861292e565b61222e565b61102c576040517f08c379a000000000000000000000000000000000000000000000000000000000815260040161102390614760565b60405180910390fd5b600047905060003373ffffffffffffffffffffffffffffffffffffffff168260405161105790614a5a565b60006040518083038185875af1925050503d8060008114611094576040519150601f19603f3d011682016040523d82523d6000602084013e611099565b606091505b50509050806110dd576040517f08c379a00000000000000000000000000000000000000000000000000000000081526004016110d490614abb565b60405180910390fd5b5050565b838383836110ef84846121ac565b8484604051602001611102929190614b57565b60405160208183030381529060405290611152576040517f08c379a00000000000000000000000000000000000000000000000000000000081526004016111499190613f4d565b60405180910390fd5b50600073ffffffffffffffffffffffffffffffffffffffff166010858560405161117d929190614b7b565b908152602001604051809103902060009054906101000a900473ffffffffffffffffffffffffffffffffffffffff1673ffffffffffffffffffffffffffffffffffffffff1614611202576040517f08c379a00000000000000000000000000000000000000000000000000000000081526004016111f990614be0565b60405180910390fd5b6040518060400160405280600781526020017f63726561746f720000000000000000000000000000000000000000000000000081525080519060200120828260405161124f929190614c25565b604051809103902014806112b557506040518060400160405280600581526020017f61646d696e0000000000000000000000000000000000000000000000000000008152508051906020012082826040516112ab929190614c25565b6040518091039020145b8061131257506040518060400160405280600981526020017f636f6c6c6563746f720000000000000000000000000000000000000000000000815250805190602001208282604051611308929190614c25565b6040518091039020145b611351576040517f08c379a000000000000000000000000000000000000000000000000000000000815260040161134890614c8a565b60405180910390fd5b6040518060400160405280600581526020017f61646d696e00000000000000000000000000000000000000000000000000000081525080519060200120828260405161139e929190614c25565b60405180910390201415806113e557506113b66120f0565b73ffffffffffffffffffffffffffffffffffffffff163373ffffffffffffffffffffffffffffffffffffffff16145b611424576040517f08c379a000000000000000000000000000000000000000000000000000000000815260040161141b90614d1c565b60405180910390fd5b600d60009054906101000a900460ff16611473576040517f08c379a000000000000000000000000000000000000000000000000000000000815260040161146a90614d88565b60405180910390fd5b600161147e33611fa9565b106114be576040517f08c379a00000000000000000000000000000000000000000000000000000000081526004016114b590614e1a565b60405180910390fd5b60006114ca8989612847565b90508034101561150f576040517f08c379a000000000000000000000000000000000000000000000000000000000815260040161150690614e86565b60405180910390fd5b60008989600c60405160200161152793929190614f86565b60405160208183030381529060405290506000600e82600f60405160200161155193929190614fe8565b604051602081830303815290604052905060006115f78c8c8080601f016020809104026020016040519081016040528093929190818152602001838380828437600081840152601f19601f820116905080830192505050505050508b8b8080601f016020809104026020016040519081016040528093929190818152602001838380828437600081840152601f19601f8201169050808301925050505050505084612e47565b6040516020016116079190615065565b60405160208183030381529060405290506000611624600a612ea6565b90506116303382612eb4565b61163a8183612ed2565b3360108e8e60405161164d929190614b7b565b908152602001604051809103902060006101000a81548173ffffffffffffffffffffffffffffffffffffffff021916908373ffffffffffffffffffffffffffffffffffffffff1602179055508c8c6013600084815260200190815260200160002091906116bb929190613c7c565b506116c6600a612f46565b50505050505050505050505050565b6116f083838360405180602001604052806000815250612284565b505050565b61170561170061292e565b61222e565b611744576040517f08c379a000000000000000000000000000000000000000000000000000000000815260040161173b90614760565b60405180910390fd5b61174d81612f5c565b61178c576040517f08c379a0000000000000000000000000000000000000000000000000000000008152600401611783906150d3565b60405180910390fd5b61179581612f9d565b50565b601360205280600052604060002060009150905080546117b7906147af565b80601f01602080910402602001604051908101604052809291908181526020018280546117e3906147af565b80156118305780601f1061180557610100808354040283529160200191611830565b820191906000526020600020905b81548152906001019060200180831161181357829003601f168201915b505050505081565b601181805160208101820180518482526020830160208501208183528095505050505050600091509050805461186d906147af565b80601f0160208091040260200160405190810160405280929190818152602001828054611899906147af565b80156118e65780601f106118bb576101008083540402835291602001916118e6565b820191906000526020600020905b8154815290600101906020018083116118c957829003601f168201915b505050505081565b6118fe6118f961292e565b61222e565b61193d576040517f08c379a000000000000000000000000000000000000000000000000000000000815260040161193490614760565b60405180910390fd5b8383838361194b84846121ac565b848460405160200161195e929190614b57565b604051602081830303815290604052906119ae576040517f08c379a00000000000000000000000000000000000000000000000000000000081526004016119a59190613f4d565b60405180910390fd5b50600073ffffffffffffffffffffffffffffffffffffffff16601085856040516119d9929190614b7b565b908152602001604051809103902060009054906101000a900473ffffffffffffffffffffffffffffffffffffffff1673ffffffffffffffffffffffffffffffffffffffff1614611a5e576040517f08c379a0000000000000000000000000000000000000000000000000000000008152600401611a5590614be0565b60405180910390fd5b6040518060400160405280600781526020017f63726561746f7200000000000000000000000000000000000000000000000000815250805190602001208282604051611aab929190614c25565b60405180910390201480611b1157506040518060400160405280600581526020017f61646d696e000000000000000000000000000000000000000000000000000000815250805190602001208282604051611b07929190614c25565b6040518091039020145b80611b6e57506040518060400160405280600981526020017f636f6c6c6563746f720000000000000000000000000000000000000000000000815250805190602001208282604051611b64929190614c25565b6040518091039020145b611bad576040517f08c379a0000000000000000000000000000000000000000000000000000000008152600401611ba490614c8a565b60405180910390fd5b6040518060400160405280600581526020017f61646d696e000000000000000000000000000000000000000000000000000000815250805190602001208282604051611bfa929190614c25565b6040518091039020141580611c415750611c126120f0565b73ffffffffffffffffffffffffffffffffffffffff163373ffffffffffffffffffffffffffffffffffffffff16145b611c80576040517f08c379a0000000000000000000000000000000000000000000000000000000008152600401611c7790614d1c565b60405180910390fd5b60008888600c604051602001611c9893929190614f86565b60405160208183030381529060405290506000600e82600f604051602001611cc293929190614fe8565b60405160208183030381529060405290506000611cdf600a612ea6565b90506000611d768c8c8080601f016020809104026020016040519081016040528093929190818152602001838380828437600081840152601f19601f820116905080830192505050505050508b8b8080601f016020809104026020016040519081016040528093929190818152602001838380828437600081840152601f19601f8201169050808301925050505050505085612e47565b604051602001611d869190615065565b6040516020818303038152906040529050611da13383612eb4565b611dab8282612ed2565b8b8b601360008581526020019081526020016000209190611dcd929190613c7c565b503360108d8d604051611de1929190614b7b565b908152602001604051809103902060006101000a81548173ffffffffffffffffffffffffffffffffffffffff021916908373ffffffffffffffffffffffffffffffffffffffff160217905550611e37600a612f46565b505050505050505050505050565b6000600960009054906101000a900460ff16905090565b600080611e6883612ff0565b9050600073ffffffffffffffffffffffffffffffffffffffff168173ffffffffffffffffffffffffffffffffffffffff161415611eda576040517f08c379a0000000000000000000000000000000000000000000000000000000008152600401611ed19061513f565b60405180910390fd5b80915050919050565b600d60019054906101000a900460ff1681565b606060128383604051611f0a929190614b7b565b90815260200160405180910390208054611f23906147af565b80601f0160208091040260200160405190810160405280929190818152602001828054611f4f906147af565b8015611f9c5780601f10611f7157610100808354040283529160200191611f9c565b820191906000526020600020905b815481529060010190602001808311611f7f57829003601f168201915b5050505050905092915050565b60008073ffffffffffffffffffffffffffffffffffffffff168273ffffffffffffffffffffffffffffffffffffffff16141561201a576040517f08c379a0000000000000000000000000000000000000000000000000000000008152600401612011906151d1565b60405180910390fd5b600360008373ffffffffffffffffffffffffffffffffffffffff1673ffffffffffffffffffffffffffffffffffffffff168152602001908152602001600020549050919050565b612069612a3a565b612073600061302d565b565b61208561208061292e565b61222e565b6120c4576040517f08c379a00000000000000000000000000000000000000000000000000000000081526004016120bb90614760565b60405180910390fd5b600d60009054906101000a900460ff1615600d60006101000a81548160ff021916908315150217905550565b6000600760009054906101000a900473ffffffffffffffffffffffffffffffffffffffff16905090565b606060018054612129906147af565b80601f0160208091040260200160405190810160405280929190818152602001828054612155906147af565b80156121a25780601f10612177576101008083540402835291602001916121a2565b820191906000526020600020905b81548152906001019060200180831161218557829003601f168201915b5050505050905090565b60008083838080601f016020809104026020016040519081016040528093929190818152602001838380828437600081840152601f19601f8201169050808301925050505050505090506000815190506003811015801561220e575060128111155b9250505092915050565b61222a61222361292e565b83836130f3565b5050565b6000600860008373ffffffffffffffffffffffffffffffffffffffff1673ffffffffffffffffffffffffffffffffffffffff16815260200190815260200160002060009054906101000a900460ff169050919050565b61229561228f61292e565b83612ab8565b6122d4576040517f08c379a00000000000000000000000000000000000000000000000000000000081526004016122cb90614a09565b60405180910390fd5b6122e084848484613260565b50505050565b601281805160208101820180518482526020830160208501208183528095505050505050600091509050805461231b906147af565b80601f0160208091040260200160405190810160405280929190818152602001828054612347906147af565b80156123945780601f1061236957610100808354040283529160200191612394565b820191906000526020600020905b81548152906001019060200180831161237757829003601f168201915b505050505081565b6000601083836040516123b0929190614b7b565b908152602001604051809103902060009054906101000a900473ffffffffffffffffffffffffffffffffffffffff16905092915050565b3373ffffffffffffffffffffffffffffffffffffffff1660108585604051612410929190614b7b565b908152602001604051809103902060009054906101000a900473ffffffffffffffffffffffffffffffffffffffff1673ffffffffffffffffffffffffffffffffffffffff161461245f57600080fd5b818160128686604051612473929190614b7b565b9081526020016040518091039020919061248e929190613c7c565b5050505050565b60606124a082612936565b60006006600084815260200190815260200160002080546124c0906147af565b80601f01602080910402602001604051908101604052809291908181526020018280546124ec906147af565b80156125395780601f1061250e57610100808354040283529160200191612539565b820191906000526020600020905b81548152906001019060200180831161251c57829003601f168201915b50505050509050600061254a6132bc565b90506000815114156125605781925050506125a3565b60008251111561259557808260405160200161257d9291906151f1565b604051602081830303815290604052925050506125a3565b61259e846132d3565b925050505b919050565b6125b0612a3a565b6125b98161222e565b6125f8576040517f08c379a00000000000000000000000000000000000000000000000000000000081526004016125ef90615287565b60405180910390fd5b6000600860008373ffffffffffffffffffffffffffffffffffffffff1673ffffffffffffffffffffffffffffffffffffffff16815260200190815260200160002060006101000a81548160ff02191690831515021790555050565b6000600560008473ffffffffffffffffffffffffffffffffffffffff1673ffffffffffffffffffffffffffffffffffffffff16815260200190815260200160002060008373ffffffffffffffffffffffffffffffffffffffff1673ffffffffffffffffffffffffffffffffffffffff16815260200190815260200160002060009054906101000a900460ff16905092915050565b6126ef612a3a565b600073ffffffffffffffffffffffffffffffffffffffff168173ffffffffffffffffffffffffffffffffffffffff16141561275f576040517f08c379a000000000000000000000000000000000000000000000000000000000815260040161275690615319565b60405180910390fd5b6127688161302d565b50565b60606000612779600a612ea6565b67ffffffffffffffff81111561279257612791614124565b5b6040519080825280602002602001820160405280156127c557816020015b60608152602001906001900390816127b05790505b50905060005b6127d5600a612ea6565b81101561283f57601360008281526020019081526020016000206040516020016127ff9190615339565b60405160208183030381529060405282828151811061282157612820615350565b5b60200260200101819052508080612837906153ae565b9150506127cb565b508091505090565b6000808383905090506000811161285d57600080fd5b600d60019054906101000a900460ff161561287c5760009150506128be565b600581116128965768015af1d78b58c400009150506128be565b60048114156128b1576801158e460913d000009150506128be565b67d02ab486cedc00009150505b92915050565b60007f01ffc9a7000000000000000000000000000000000000000000000000000000007bffffffffffffffffffffffffffffffffffffffffffffffffffffffff1916827bffffffffffffffffffffffffffffffffffffffffffffffffffffffff1916149050919050565b600033905090565b61293f81612f5c565b61297e576040517f08c379a00000000000000000000000000000000000000000000000000000000081526004016129759061513f565b60405180910390fd5b50565b816004600083815260200190815260200160002060006101000a81548173ffffffffffffffffffffffffffffffffffffffff021916908373ffffffffffffffffffffffffffffffffffffffff160217905550808273ffffffffffffffffffffffffffffffffffffffff166129f483611e5c565b73ffffffffffffffffffffffffffffffffffffffff167f8c5be1e5ebec7d5bd14f71427d1e84f3dd0314c0f7b2291e5b200ac8c7c3b92560405160405180910390a45050565b612a4261292e565b73ffffffffffffffffffffffffffffffffffffffff16612a606120f0565b73ffffffffffffffffffffffffffffffffffffffff1614612ab6576040517f08c379a0000000000000000000000000000000000000000000000000000000008152600401612aad90615443565b60405180910390fd5b565b600080612ac483611e5c565b90508073ffffffffffffffffffffffffffffffffffffffff168473ffffffffffffffffffffffffffffffffffffffff161480612b065750612b058185612653565b5b80612b4457508373ffffffffffffffffffffffffffffffffffffffff16612b2c84610b5f565b73ffffffffffffffffffffffffffffffffffffffff16145b91505092915050565b8273ffffffffffffffffffffffffffffffffffffffff16612b6d82611e5c565b73ffffffffffffffffffffffffffffffffffffffff1614612bc3576040517f08c379a0000000000000000000000000000000000000000000000000000000008152600401612bba906154d5565b60405180910390fd5b600073ffffffffffffffffffffffffffffffffffffffff168273ffffffffffffffffffffffffffffffffffffffff161415612c33576040517f08c379a0000000000000000000000000000000000000000000000000000000008152600401612c2a90615567565b60405180910390fd5b612c40838383600161333b565b8273ffffffffffffffffffffffffffffffffffffffff16612c6082611e5c565b73ffffffffffffffffffffffffffffffffffffffff1614612cb6576040517f08c379a0000000000000000000000000000000000000000000000000000000008152600401612cad906154d5565b60405180910390fd5b6004600082815260200190815260200160002060006101000a81549073ffffffffffffffffffffffffffffffffffffffff02191690556001600360008573ffffffffffffffffffffffffffffffffffffffff1673ffffffffffffffffffffffffffffffffffffffff168152602001908152602001600020600082825403925050819055506001600360008473ffffffffffffffffffffffffffffffffffffffff1673ffffffffffffffffffffffffffffffffffffffff16815260200190815260200160002060008282540192505081905550816002600083815260200190815260200160002060006101000a81548173ffffffffffffffffffffffffffffffffffffffff021916908373ffffffffffffffffffffffffffffffffffffffff160217905550808273ffffffffffffffffffffffffffffffffffffffff168473ffffffffffffffffffffffffffffffffffffffff167fddf252ad1be2c89b69c2b068fc378daa952ba7f163c4a11628f55a4df523b3ef60405160405180910390a4612e428383836001613341565b505050565b60606000845190506000612e5a82613347565b90506000612e9787600c612e6d8861341f565b858a604051602001612e8395949392919061574f565b60405160208183030381529060405261341f565b90508093505050509392505050565b600081600001549050919050565b612ece8282604051806020016040528060008152506135b7565b5050565b612edb82612f5c565b612f1a576040517f08c379a0000000000000000000000000000000000000000000000000000000008152600401612f119061584e565b60405180910390fd5b80600660008481526020019081526020016000209080519060200190612f41929190613d02565b505050565b6001816000016000828254019250508190555050565b60008073ffffffffffffffffffffffffffffffffffffffff16612f7e83612ff0565b73ffffffffffffffffffffffffffffffffffffffff1614159050919050565b612fa681613612565b6000600660008381526020019081526020016000208054612fc6906147af565b905014612fed57600660008281526020019081526020016000206000612fec9190613d88565b5b50565b60006002600083815260200190815260200160002060009054906101000a900473ffffffffffffffffffffffffffffffffffffffff169050919050565b6000600760009054906101000a900473ffffffffffffffffffffffffffffffffffffffff16905081600760006101000a81548173ffffffffffffffffffffffffffffffffffffffff021916908373ffffffffffffffffffffffffffffffffffffffff1602179055508173ffffffffffffffffffffffffffffffffffffffff168173ffffffffffffffffffffffffffffffffffffffff167f8be0079c531659141344cd1fd0a4f28419497f9722a3daafe3b4186f6b6457e060405160405180910390a35050565b8173ffffffffffffffffffffffffffffffffffffffff168373ffffffffffffffffffffffffffffffffffffffff161415613162576040517f08c379a0000000000000000000000000000000000000000000000000000000008152600401613159906158ba565b60405180910390fd5b80600560008573ffffffffffffffffffffffffffffffffffffffff1673ffffffffffffffffffffffffffffffffffffffff16815260200190815260200160002060008473ffffffffffffffffffffffffffffffffffffffff1673ffffffffffffffffffffffffffffffffffffffff16815260200190815260200160002060006101000a81548160ff0219169083151502179055508173ffffffffffffffffffffffffffffffffffffffff168373ffffffffffffffffffffffffffffffffffffffff167f17307eab39ab6107e8899845ad3d59bd9653f200f220920489ca2b5937696c31836040516132539190613e99565b60405180910390a3505050565b61326b848484612b4d565b61327784848484613760565b6132b6576040517f08c379a00000000000000000000000000000000000000000000000000000000081526004016132ad9061594c565b60405180910390fd5b50505050565b606060405180602001604052806000815250905090565b60606132de82612936565b60006132e86132bc565b905060008151116133085760405180602001604052806000815250613333565b8061331284613347565b6040516020016133239291906151f1565b6040516020818303038152906040525b915050919050565b50505050565b50505050565b606060006001613356846138e8565b01905060008167ffffffffffffffff81111561337557613374614124565b5b6040519080825280601f01601f1916602001820160405280156133a75781602001600182028036833780820191505090505b509050600082602001820190505b600115613414578080600190039150507f3031323334353637383961626364656600000000000000000000000000000000600a86061a8153600a85816133fe576133fd61596c565b5b049450600085141561340f57613414565b6133b5565b819350505050919050565b6060600082519050600081141561344857604051806020016040528060008152509150506135b2565b60006003600283613459919061599b565b61346391906159f1565b600461346f9190615a22565b90506000602082613480919061599b565b67ffffffffffffffff81111561349957613498614124565b5b6040519080825280601f01601f1916602001820160405280156134cb5781602001600182028036833780820191505090505b5090506000604051806060016040528060408152602001615c38604091399050600181016020830160005b8681101561356f5760038101905062ffffff818a015116603f8160121c168401518060081b905060ff603f83600c1c1686015116810190508060081b905060ff603f8360061c1686015116810190508060081b905060ff603f831686015116810190508060e01b905080845260048401935050506134f6565b5060038606600181146135895760028114613599576135a4565b613d3d60f01b60028303526135a4565b603d60f81b60018303525b508484525050819450505050505b919050565b6135c18383613a3b565b6135ce6000848484613760565b61360d576040517f08c379a00000000000000000000000000000000000000000000000000000000081526004016136049061594c565b60405180910390fd5b505050565b600061361d82611e5c565b905061362d81600084600161333b565b61363682611e5c565b90506004600083815260200190815260200160002060006101000a81549073ffffffffffffffffffffffffffffffffffffffff02191690556001600360008373ffffffffffffffffffffffffffffffffffffffff1673ffffffffffffffffffffffffffffffffffffffff168152602001908152602001600020600082825403925050819055506002600083815260200190815260200160002060006101000a81549073ffffffffffffffffffffffffffffffffffffffff021916905581600073ffffffffffffffffffffffffffffffffffffffff168273ffffffffffffffffffffffffffffffffffffffff167fddf252ad1be2c89b69c2b068fc378daa952ba7f163c4a11628f55a4df523b3ef60405160405180910390a461375c816000846001613341565b5050565b60006137818473ffffffffffffffffffffffffffffffffffffffff16613c59565b156138db578373ffffffffffffffffffffffffffffffffffffffff1663150b7a026137aa61292e565b8786866040518563ffffffff1660e01b81526004016137cc9493929190615ad1565b6020604051808303816000875af192505050801561380857506040513d601f19601f820116820180604052508101906138059190615b32565b60015b61388b573d8060008114613838576040519150601f19603f3d011682016040523d82523d6000602084013e61383d565b606091505b50600081511415613883576040517f08c379a000000000000000000000000000000000000000000000000000000000815260040161387a9061594c565b60405180910390fd5b805181602001fd5b63150b7a0260e01b7bffffffffffffffffffffffffffffffffffffffffffffffffffffffff1916817bffffffffffffffffffffffffffffffffffffffffffffffffffffffff1916149150506138e0565b600190505b949350505050565b600080600090507a184f03e93ff9f4daa797ed6e38ed64bf6a1f0100000000000000008310613946577a184f03e93ff9f4daa797ed6e38ed64bf6a1f010000000000000000838161393c5761393b61596c565b5b0492506040810190505b6d04ee2d6d415b85acef81000000008310613983576d04ee2d6d415b85acef810000000083816139795761397861596c565b5b0492506020810190505b662386f26fc1000083106139b257662386f26fc1000083816139a8576139a761596c565b5b0492506010810190505b6305f5e10083106139db576305f5e10083816139d1576139d061596c565b5b0492506008810190505b6127108310613a005761271083816139f6576139f561596c565b5b0492506004810190505b60648310613a235760648381613a1957613a1861596c565b5b0492506002810190505b600a8310613a32576001810190505b80915050919050565b600073ffffffffffffffffffffffffffffffffffffffff168273ffffffffffffffffffffffffffffffffffffffff161415613aab576040517f08c379a0000000000000000000000000000000000000000000000000000000008152600401613aa290615bab565b60405180910390fd5b613ab481612f5c565b15613af4576040517f08c379a0000000000000000000000000000000000000000000000000000000008152600401613aeb90615c17565b60405180910390fd5b613b0260008383600161333b565b613b0b81612f5c565b15613b4b576040517f08c379a0000000000000000000000000000000000000000000000000000000008152600401613b4290615c17565b60405180910390fd5b6001600360008473ffffffffffffffffffffffffffffffffffffffff1673ffffffffffffffffffffffffffffffffffffffff16815260200190815260200160002060008282540192505081905550816002600083815260200190815260200160002060006101000a81548173ffffffffffffffffffffffffffffffffffffffff021916908373ffffffffffffffffffffffffffffffffffffffff160217905550808273ffffffffffffffffffffffffffffffffffffffff16600073ffffffffffffffffffffffffffffffffffffffff167fddf252ad1be2c89b69c2b068fc378daa952ba7f163c4a11628f55a4df523b3ef60405160405180910390a4613c55600083836001613341565b5050565b6000808273ffffffffffffffffffffffffffffffffffffffff163b119050919050565b828054613c88906147af565b90600052602060002090601f016020900481019282613caa5760008555613cf1565b82601f10613cc357803560ff1916838001178555613cf1565b82800160010185558215613cf1579182015b82811115613cf0578235825591602001919060010190613cd5565b5b509050613cfe9190613dc8565b5090565b828054613d0e906147af565b90600052602060002090601f016020900481019282613d305760008555613d77565b82601f10613d4957805160ff1916838001178555613d77565b82800160010185558215613d77579182015b82811115613d76578251825591602001919060010190613d5b565b5b509050613d849190613dc8565b5090565b508054613d94906147af565b6000825580601f10613da65750613dc5565b601f016020900490600052602060002090810190613dc49190613dc8565b5b50565b5b80821115613de1576000816000905550600101613dc9565b5090565b6000604051905090565b600080fd5b600080fd5b60007fffffffff0000000000000000000000000000000000000000000000000000000082169050919050565b613e2e81613df9565b8114613e3957600080fd5b50565b600081359050613e4b81613e25565b92915050565b600060208284031215613e6757613e66613def565b5b6000613e7584828501613e3c565b91505092915050565b60008115159050919050565b613e9381613e7e565b82525050565b6000602082019050613eae6000830184613e8a565b92915050565b600081519050919050565b600082825260208201905092915050565b60005b83811015613eee578082015181840152602081019050613ed3565b83811115613efd576000848401525b50505050565b6000601f19601f8301169050919050565b6000613f1f82613eb4565b613f298185613ebf565b9350613f39818560208601613ed0565b613f4281613f03565b840191505092915050565b60006020820190508181036000830152613f678184613f14565b905092915050565b6000819050919050565b613f8281613f6f565b8114613f8d57600080fd5b50565b600081359050613f9f81613f79565b92915050565b600060208284031215613fbb57613fba613def565b5b6000613fc984828501613f90565b91505092915050565b600073ffffffffffffffffffffffffffffffffffffffff82169050919050565b6000613ffd82613fd2565b9050919050565b61400d81613ff2565b82525050565b60006020820190506140286000830184614004565b92915050565b61403781613ff2565b811461404257600080fd5b50565b6000813590506140548161402e565b92915050565b6000806040838503121561407157614070613def565b5b600061407f85828601614045565b925050602061409085828601613f90565b9150509250929050565b6000602082840312156140b0576140af613def565b5b60006140be84828501614045565b91505092915050565b6000806000606084860312156140e0576140df613def565b5b60006140ee86828701614045565b93505060206140ff86828701614045565b925050604061411086828701613f90565b9150509250925092565b600080fd5b600080fd5b7f4e487b7100000000000000000000000000000000000000000000000000000000600052604160045260246000fd5b61415c82613f03565b810181811067ffffffffffffffff8211171561417b5761417a614124565b5b80604052505050565b600061418e613de5565b905061419a8282614153565b919050565b600067ffffffffffffffff8211156141ba576141b9614124565b5b6141c382613f03565b9050602081019050919050565b82818337600083830152505050565b60006141f26141ed8461419f565b614184565b90508281526020810184848401111561420e5761420d61411f565b5b6142198482856141d0565b509392505050565b600082601f8301126142365761423561411a565b5b81356142468482602086016141df565b91505092915050565b60006020828403121561426557614264613def565b5b600082013567ffffffffffffffff81111561428357614282613df4565b5b61428f84828501614221565b91505092915050565b600080fd5b600080fd5b60008083601f8401126142b8576142b761411a565b5b8235905067ffffffffffffffff8111156142d5576142d4614298565b5b6020830191508360018202830111156142f1576142f061429d565b5b9250929050565b6000806000806040858703121561431257614311613def565b5b600085013567ffffffffffffffff8111156143305761432f613df4565b5b61433c878288016142a2565b9450945050602085013567ffffffffffffffff81111561435f5761435e613df4565b5b61436b878288016142a2565b925092505092959194509250565b600080602083850312156143905761438f613def565b5b600083013567ffffffffffffffff8111156143ae576143ad613df4565b5b6143ba858286016142a2565b92509250509250929050565b6143cf81613f6f565b82525050565b60006020820190506143ea60008301846143c6565b92915050565b6143f981613e7e565b811461440457600080fd5b50565b600081359050614416816143f0565b92915050565b6000806040838503121561443357614432613def565b5b600061444185828601614045565b925050602061445285828601614407565b9150509250929050565b600067ffffffffffffffff82111561447757614476614124565b5b61448082613f03565b9050602081019050919050565b60006144a061449b8461445c565b614184565b9050828152602081018484840111156144bc576144bb61411f565b5b6144c78482856141d0565b509392505050565b600082601f8301126144e4576144e361411a565b5b81356144f484826020860161448d565b91505092915050565b6000806000806080858703121561451757614516613def565b5b600061452587828801614045565b945050602061453687828801614045565b935050604061454787828801613f90565b925050606085013567ffffffffffffffff81111561456857614567613df4565b5b614574878288016144cf565b91505092959194509250565b6000806040838503121561459757614596613def565b5b60006145a585828601614045565b92505060206145b685828601614045565b9150509250929050565b600081519050919050565b600082825260208201905092915050565b6000819050602082019050919050565b600082825260208201905092915050565b600061460882613eb4565b61461281856145ec565b9350614622818560208601613ed0565b61462b81613f03565b840191505092915050565b600061464283836145fd565b905092915050565b6000602082019050919050565b6000614662826145c0565b61466c81856145cb565b93508360208202850161467e856145dc565b8060005b858110156146ba578484038952815161469b8582614636565b94506146a68361464a565b925060208a01995050600181019050614682565b50829750879550505050505092915050565b600060208201905081810360008301526146e68184614657565b905092915050565b7f737562706f7274206f776e61626c653a2043616c6c6572206e6f74207061727460008201527f206f662074686520706f72742e00000000000000000000000000000000000000602082015250565b600061474a602d83613ebf565b9150614755826146ee565b604082019050919050565b600060208201905081810360008301526147798161473d565b9050919050565b7f4e487b7100000000000000000000000000000000000000000000000000000000600052602260045260246000fd5b600060028204905060018216806147c757607f821691505b602082108114156147db576147da614780565b5b50919050565b7f4552433732313a20617070726f76616c20746f2063757272656e74206f776e6560008201527f7200000000000000000000000000000000000000000000000000000000000000602082015250565b600061483d602183613ebf565b9150614848826147e1565b604082019050919050565b6000602082019050818103600083015261486c81614830565b9050919050565b7f4552433732313a20617070726f76652063616c6c6572206973206e6f7420746f60008201527f6b656e206f776e6572206f7220617070726f76656420666f7220616c6c000000602082015250565b60006148cf603d83613ebf565b91506148da82614873565b604082019050919050565b600060208201905081810360008301526148fe816148c2565b9050919050565b7f737562706f7274206f776e61626c653a204164647265737320616c726561647960008201527f20696e2074686520706f72742e00000000000000000000000000000000000000602082015250565b6000614961602d83613ebf565b915061496c82614905565b604082019050919050565b6000602082019050818103600083015261499081614954565b9050919050565b7f4552433732313a2063616c6c6572206973206e6f7420746f6b656e206f776e6560008201527f72206f7220617070726f76656400000000000000000000000000000000000000602082015250565b60006149f3602d83613ebf565b91506149fe82614997565b604082019050919050565b60006020820190508181036000830152614a22816149e6565b9050919050565b600081905092915050565b50565b6000614a44600083614a29565b9150614a4f82614a34565b600082019050919050565b6000614a6582614a37565b9150819050919050565b7f4661696c656420746f207769746864726177204d617469630000000000000000600082015250565b6000614aa5601883613ebf565b9150614ab082614a6f565b602082019050919050565b60006020820190508181036000830152614ad481614a98565b9050919050565b600081905092915050565b7f496e76616c69644e616d653a2000000000000000000000000000000000000000600082015250565b6000614b1c600d83614adb565b9150614b2782614ae6565b600d82019050919050565b6000614b3e8385614adb565b9350614b4b8385846141d0565b82840190509392505050565b6000614b6282614b0f565b9150614b6f828486614b32565b91508190509392505050565b6000614b88828486614b32565b91508190509392505050565b7f416c726561647952656769737465726564000000000000000000000000000000600082015250565b6000614bca601183613ebf565b9150614bd582614b94565b602082019050919050565b60006020820190508181036000830152614bf981614bbd565b9050919050565b6000614c0c8385614a29565b9350614c198385846141d0565b82840190509392505050565b6000614c32828486614c00565b91508190509392505050565b7f496e76616c696420726f6c650000000000000000000000000000000000000000600082015250565b6000614c74600c83613ebf565b9150614c7f82614c3e565b602082019050919050565b60006020820190508181036000830152614ca381614c67565b9050919050565b7f41646d696e20726f6c652063616e206f6e6c792062652061737369676e65642060008201527f6279206f776e6572000000000000000000000000000000000000000000000000602082015250565b6000614d06602883613ebf565b9150614d1182614caa565b604082019050919050565b60006020820190508181036000830152614d3581614cf9565b9050919050565b7f556e617574686f72697a65640000000000000000000000000000000000000000600082015250565b6000614d72600c83613ebf565b9150614d7d82614d3c565b602082019050919050565b60006020820190508181036000830152614da181614d65565b9050919050565b7f417965656f6f3a20596f752063616e206f6e6c79206d696e74206f6e6520667260008201527f656520636f6c6c65637469626c65210000000000000000000000000000000000602082015250565b6000614e04602f83613ebf565b9150614e0f82614da8565b604082019050919050565b60006020820190508181036000830152614e3381614df7565b9050919050565b7f4e6f7420656e6f756768204d6174696320706169640000000000000000000000600082015250565b6000614e70601583613ebf565b9150614e7b82614e3a565b602082019050919050565b60006020820190508181036000830152614e9f81614e63565b9050919050565b7f2e00000000000000000000000000000000000000000000000000000000000000600082015250565b6000614edc600183614adb565b9150614ee782614ea6565b600182019050919050565b60008190508160005260206000209050919050565b60008154614f14816147af565b614f1e8186614adb565b94506001821660008114614f395760018114614f4a57614f7d565b60ff19831686528186019350614f7d565b614f5385614ef2565b60005b83811015614f7557815481890152600182019150602081019050614f56565b838801955050505b50505092915050565b6000614f93828587614b32565b9150614f9e82614ecf565b9150614faa8284614f07565b9150819050949350505050565b6000614fc282613eb4565b614fcc8185614adb565b9350614fdc818560208601613ed0565b80840191505092915050565b6000614ff48286614f07565b91506150008285614fb7565b915061500c8284614f07565b9150819050949350505050565b7f646174613a6170706c69636174696f6e2f6a736f6e3b6261736536342c000000600082015250565b600061504f601d83614adb565b915061505a82615019565b601d82019050919050565b600061507082615042565b915061507c8284614fb7565b915081905092915050565b7f546f6b656e20646f6573206e6f74206578697374000000000000000000000000600082015250565b60006150bd601483613ebf565b91506150c882615087565b602082019050919050565b600060208201905081810360008301526150ec816150b0565b9050919050565b7f4552433732313a20696e76616c696420746f6b656e2049440000000000000000600082015250565b6000615129601883613ebf565b9150615134826150f3565b602082019050919050565b600060208201905081810360008301526151588161511c565b9050919050565b7f4552433732313a2061646472657373207a65726f206973206e6f74206120766160008201527f6c6964206f776e65720000000000000000000000000000000000000000000000602082015250565b60006151bb602983613ebf565b91506151c68261515f565b604082019050919050565b600060208201905081810360008301526151ea816151ae565b9050919050565b60006151fd8285614fb7565b91506152098284614fb7565b91508190509392505050565b7f737562706f7274206f776e61626c653a204164647265737320616c726561647960008201527f206e6f7420696e2074686520706f72742e000000000000000000000000000000602082015250565b6000615271603183613ebf565b915061527c82615215565b604082019050919050565b600060208201905081810360008301526152a081615264565b9050919050565b7f4f776e61626c653a206e6577206f776e657220697320746865207a65726f206160008201527f6464726573730000000000000000000000000000000000000000000000000000602082015250565b6000615303602683613ebf565b915061530e826152a7565b604082019050919050565b60006020820190508181036000830152615332816152f6565b9050919050565b60006153458284614f07565b915081905092915050565b7f4e487b7100000000000000000000000000000000000000000000000000000000600052603260045260246000fd5b7f4e487b7100000000000000000000000000000000000000000000000000000000600052601160045260246000fd5b60006153b982613f6f565b91507fffffffffffffffffffffffffffffffffffffffffffffffffffffffffffffffff8214156153ec576153eb61537f565b5b600182019050919050565b7f4f776e61626c653a2063616c6c6572206973206e6f7420746865206f776e6572600082015250565b600061542d602083613ebf565b9150615438826153f7565b602082019050919050565b6000602082019050818103600083015261545c81615420565b9050919050565b7f4552433732313a207472616e736665722066726f6d20696e636f72726563742060008201527f6f776e6572000000000000000000000000000000000000000000000000000000602082015250565b60006154bf602583613ebf565b91506154ca82615463565b604082019050919050565b600060208201905081810360008301526154ee816154b2565b9050919050565b7f4552433732313a207472616e7366657220746f20746865207a65726f2061646460008201527f7265737300000000000000000000000000000000000000000000000000000000602082015250565b6000615551602483613ebf565b915061555c826154f5565b604082019050919050565b6000602082019050818103600083015261558081615544565b9050919050565b7f7b226e616d65223a202200000000000000000000000000000000000000000000600082015250565b60006155bd600a83614adb565b91506155c882615587565b600a82019050919050565b7f222c226465736372697074696f6e223a2022796f7572206f6666696369616c2060008201527f737562706f72742068616e646c65222c22696d616765223a2022646174613a6960208201527f6d6167652f7376672b786d6c3b6261736536342c000000000000000000000000604082015250565b6000615655605483614adb565b9150615660826155d3565b605482019050919050565b7f222c226c656e677468223a202200000000000000000000000000000000000000600082015250565b60006156a1600d83614adb565b91506156ac8261566b565b600d82019050919050565b7f222c22726f6c65223a2022000000000000000000000000000000000000000000600082015250565b60006156ed600b83614adb565b91506156f8826156b7565b600b82019050919050565b7f227d000000000000000000000000000000000000000000000000000000000000600082015250565b6000615739600283614adb565b915061574482615703565b600282019050919050565b600061575a826155b0565b91506157668288614fb7565b915061577182614ecf565b915061577d8287614f07565b915061578882615648565b91506157948286614fb7565b915061579f82615694565b91506157ab8285614fb7565b91506157b6826156e0565b91506157c28284614fb7565b91506157cd8261572c565b91508190509695505050505050565b7f45524337323155524953746f726167653a2055524920736574206f66206e6f6e60008201527f6578697374656e7420746f6b656e000000000000000000000000000000000000602082015250565b6000615838602e83613ebf565b9150615843826157dc565b604082019050919050565b600060208201905081810360008301526158678161582b565b9050919050565b7f4552433732313a20617070726f766520746f2063616c6c657200000000000000600082015250565b60006158a4601983613ebf565b91506158af8261586e565b602082019050919050565b600060208201905081810360008301526158d381615897565b9050919050565b7f4552433732313a207472616e7366657220746f206e6f6e20455243373231526560008201527f63656976657220696d706c656d656e7465720000000000000000000000000000602082015250565b6000615936603283613ebf565b9150615941826158da565b604082019050919050565b6000602082019050818103600083015261596581615929565b9050919050565b7f4e487b7100000000000000000000000000000000000000000000000000000000600052601260045260246000fd5b60006159a682613f6f565b91506159b183613f6f565b9250827fffffffffffffffffffffffffffffffffffffffffffffffffffffffffffffffff038211156159e6576159e561537f565b5b828201905092915050565b60006159fc82613f6f565b9150615a0783613f6f565b925082615a1757615a1661596c565b5b828204905092915050565b6000615a2d82613f6f565b9150615a3883613f6f565b9250817fffffffffffffffffffffffffffffffffffffffffffffffffffffffffffffffff0483118215151615615a7157615a7061537f565b5b828202905092915050565b600081519050919050565b600082825260208201905092915050565b6000615aa382615a7c565b615aad8185615a87565b9350615abd818560208601613ed0565b615ac681613f03565b840191505092915050565b6000608082019050615ae66000830187614004565b615af36020830186614004565b615b0060408301856143c6565b8181036060830152615b128184615a98565b905095945050505050565b600081519050615b2c81613e25565b92915050565b600060208284031215615b4857615b47613def565b5b6000615b5684828501615b1d565b91505092915050565b7f4552433732313a206d696e7420746f20746865207a65726f2061646472657373600082015250565b6000615b95602083613ebf565b9150615ba082615b5f565b602082019050919050565b60006020820190508181036000830152615bc481615b88565b9050919050565b7f4552433732313a20746f6b656e20616c7265616479206d696e74656400000000600082015250565b6000615c01601c83613ebf565b9150615c0c82615bcb565b602082019050919050565b60006020820190508181036000830152615c3081615bf4565b905091905056fe4142434445464748494a4b4c4d4e4f505152535455565758595a6162636465666768696a6b6c6d6e6f707172737475767778797a303132333435363738392b2fa26469706673582212200e4b5678377a30ae582e02d64ee45aa1707b99e502c409a02aa2371d5979bdfe64736f6c634300080a00333c73766720786d6c6e733d22687474703a2f2f7777772e77332e6f72672f323030302f737667222077696474683d223130302522206865696768743d2231303025222076696577426f783d223020302032373020323730222066696c6c3d226e6f6e65223e3c706174682066696c6c3d2275726c282361292220643d224d302030683237307632373048307a222f3e3c646566733e3c66696c7465722069643d22622220636f6c6f722d696e746572706f6c6174696f6e2d66696c746572733d2273524742222066696c746572556e6974733d227573657253706163654f6e55736522206865696768743d22323730222077696474683d22323730223e3c666544726f70536861646f772064783d2230222064793d22312220737464446576696174696f6e3d22322220666c6f6f642d6f7061636974793d222e323235222077696474683d223230302522206865696768743d2232303025222f3e3c2f66696c7465723e3c2f646566733e3c7061746820643d224d31362e32392035392e36396131312e30362031312e30362030203020312031302e38332d382e37396831392e373263322e3134203020332e32392d312e313520332e35392d322e35362e33332d312e35372d2e34392d322e33392d322e36332d322e33394833342e3835632d392e3420302d31352e35382d342e37382d31332e32382d31352e373520322e34322d31312e35352031322e382d31352e38342032302e382d31352e38346831382e333563352e393320302031302e333620352e343620392e31352031312e323661322e36353320322e3635332030203020312d322e353920322e314834322e3231632d322e303620302d332e313120312e30372d332e333920322e3339732e333120322e343720322e333720322e34376831312e30356331312e383820302031372e343420362e312031352e34392031352e3432732d31302e352031362e32352d32312e38382031362e3235483230632d322e343120302d342e32312d322e32312d332e37312d342e35375a222066696c6c3d2223666666222f3e3c646566733e3c6c696e6561724772616469656e742069643d2261222078313d2230222079313d2230222078323d22323730222079323d2232373022206772616469656e74556e6974733d227573657253706163654f6e557365223e3c73746f702073746f702d636f6c6f723d2223303030303862222f3e3c73746f70206f66667365743d2231222073746f702d636f6c6f723d2223303034656261222073746f702d6f7061636974793d222e3939222f3e3c2f6c696e6561724772616469656e743e3c2f646566733e3c7465787420783d2232302e352220793d223233312220666f6e742d73697a653d223138222066696c6c3d2223666666222066696c7465723d2275726c282362292220666f6e742d66616d696c793d22506c7573204a616b617274612053616e732c44656a6156752053616e732c4e6f746f20436f6c6f7220456d6f6a692c4170706c6520436f6c6f7220456d6f6a692c73616e732d73657269662220666f6e742d7765696768743d22626f6c64223e",
  "linkReferences": {},
  "deployedLinkReferences": {}
}